{
  "contractName": "Ballot",
  "abi": [
    {
      "inputs": [
        {
          "internalType": "string[]",
          "name": "proposalNames",
          "type": "string[]"
        },
        {
          "internalType": "address",
          "name": "userProfileContractAddress",
          "type": "address"
        }
      ],
      "stateMutability": "nonpayable",
      "type": "constructor"
    },
    {
      "anonymous": false,
      "inputs": [
        {
          "indexed": false,
          "internalType": "string",
          "name": "message",
          "type": "string"
        }
      ],
      "name": "Log",
      "type": "event"
    },
    {
      "inputs": [],
      "name": "chairperson",
      "outputs": [
        {
          "internalType": "address",
          "name": "",
          "type": "address"
        }
      ],
      "stateMutability": "view",
      "type": "function",
      "constant": true
    },
    {
      "inputs": [
        {
          "internalType": "uint256",
          "name": "",
          "type": "uint256"
        }
      ],
      "name": "proposals",
      "outputs": [
        {
          "internalType": "string",
          "name": "name",
          "type": "string"
        },
        {
          "internalType": "uint256",
          "name": "voteCount",
          "type": "uint256"
        }
      ],
      "stateMutability": "view",
      "type": "function",
      "constant": true
    },
    {
      "inputs": [],
      "name": "userProfile",
      "outputs": [
        {
          "internalType": "contract UserProfile",
          "name": "",
          "type": "address"
        }
      ],
      "stateMutability": "view",
      "type": "function",
      "constant": true
    },
    {
      "inputs": [
        {
          "internalType": "address",
          "name": "",
          "type": "address"
        }
      ],
      "name": "voters",
      "outputs": [
        {
          "internalType": "uint256",
          "name": "weight",
          "type": "uint256"
        },
        {
          "internalType": "bool",
          "name": "voted",
          "type": "bool"
        },
        {
          "internalType": "address",
          "name": "delegate",
          "type": "address"
        },
        {
          "internalType": "uint256",
          "name": "vote",
          "type": "uint256"
        }
      ],
      "stateMutability": "view",
      "type": "function",
      "constant": true
    },
    {
      "inputs": [
        {
          "internalType": "address",
          "name": "voter",
          "type": "address"
        }
      ],
      "name": "giveRightToVote",
      "outputs": [],
      "stateMutability": "nonpayable",
      "type": "function"
    },
    {
      "inputs": [
        {
          "internalType": "address",
          "name": "to",
          "type": "address"
        }
      ],
      "name": "delegate",
      "outputs": [],
      "stateMutability": "nonpayable",
      "type": "function"
    },
    {
      "inputs": [
        {
          "internalType": "uint256",
          "name": "proposal",
          "type": "uint256"
        }
      ],
      "name": "vote",
      "outputs": [],
      "stateMutability": "nonpayable",
      "type": "function"
    },
    {
      "inputs": [],
      "name": "winningProposal",
      "outputs": [
        {
          "internalType": "uint256",
          "name": "winningProposal_",
          "type": "uint256"
        }
      ],
      "stateMutability": "view",
      "type": "function",
      "constant": true
    },
    {
      "inputs": [],
      "name": "winnerName",
      "outputs": [
        {
          "internalType": "string",
          "name": "winnerName_",
          "type": "string"
        }
      ],
      "stateMutability": "view",
      "type": "function",
      "constant": true
    },
    {
      "inputs": [],
      "name": "checkEligibilityToVote",
      "outputs": [
        {
          "internalType": "bool",
          "name": "",
          "type": "bool"
        }
      ],
      "stateMutability": "view",
      "type": "function",
      "constant": true
    },
    {
      "inputs": [],
      "name": "getProposals",
      "outputs": [
        {
          "internalType": "string[]",
          "name": "",
          "type": "string[]"
        }
      ],
      "stateMutability": "view",
      "type": "function",
      "constant": true
    },
    {
      "inputs": [
        {
          "internalType": "address",
          "name": "user",
          "type": "address"
        }
      ],
      "name": "hasVoted",
      "outputs": [
        {
          "internalType": "bool",
          "name": "",
          "type": "bool"
        }
      ],
      "stateMutability": "view",
      "type": "function",
      "constant": true
    }
  ],
  "bytecode": "0x60806040523480156200001157600080fd5b5060405162002394380380620023948339818101604052810190620000379190620004f9565b7fcf34ef537ac33ee1ac626ca1587a0a7e8e51561e5514f8cb36afa1c5102b3bab6040516200006690620005c0565b60405180910390a1336000806101000a81548173ffffffffffffffffffffffffffffffffffffffff021916908373ffffffffffffffffffffffffffffffffffffffff16021790555060018060008060009054906101000a900473ffffffffffffffffffffffffffffffffffffffff1673ffffffffffffffffffffffffffffffffffffffff1673ffffffffffffffffffffffffffffffffffffffff1681526020019081526020016000206000018190555080600360006101000a81548173ffffffffffffffffffffffffffffffffffffffff021916908373ffffffffffffffffffffffffffffffffffffffff16021790555060005b8251811015620001fc5760026040518060400160405280858481518110620001875762000186620005e2565b5b60200260200101518152602001600081525090806001815401808255809150506001900390600052602060002090600202016000909190919091506000820151816000019081620001d991906200085c565b506020820151816001015550508080620001f39062000972565b9150506200015a565b505050620009bf565b6000604051905090565b600080fd5b600080fd5b600080fd5b6000601f19601f8301169050919050565b7f4e487b7100000000000000000000000000000000000000000000000000000000600052604160045260246000fd5b62000269826200021e565b810181811067ffffffffffffffff821117156200028b576200028a6200022f565b5b80604052505050565b6000620002a062000205565b9050620002ae82826200025e565b919050565b600067ffffffffffffffff821115620002d157620002d06200022f565b5b602082029050602081019050919050565b600080fd5b600080fd5b600067ffffffffffffffff8211156200030a57620003096200022f565b5b62000315826200021e565b9050602081019050919050565b60005b838110156200034257808201518184015260208101905062000325565b60008484015250505050565b6000620003656200035f84620002ec565b62000294565b905082815260208101848484011115620003845762000383620002e7565b5b6200039184828562000322565b509392505050565b600082601f830112620003b157620003b062000219565b5b8151620003c38482602086016200034e565b91505092915050565b6000620003e3620003dd84620002b3565b62000294565b90508083825260208201905060208402830185811115620004095762000408620002e2565b5b835b818110156200045757805167ffffffffffffffff81111562000432576200043162000219565b5b80860162000441898262000399565b855260208501945050506020810190506200040b565b5050509392505050565b600082601f83011262000479576200047862000219565b5b81516200048b848260208601620003cc565b91505092915050565b600073ffffffffffffffffffffffffffffffffffffffff82169050919050565b6000620004c18262000494565b9050919050565b620004d381620004b4565b8114620004df57600080fd5b50565b600081519050620004f381620004c8565b92915050565b600080604083850312156200051357620005126200020f565b5b600083015167ffffffffffffffff81111562000534576200053362000214565b5b620005428582860162000461565b92505060206200055585828601620004e2565b9150509250929050565b600082825260208201905092915050565b7f5374617274696e6720746f206465706c6f7920636f6e74726163740000000000600082015250565b6000620005a8601b836200055f565b9150620005b58262000570565b602082019050919050565b60006020820190508181036000830152620005db8162000599565b9050919050565b7f4e487b7100000000000000000000000000000000000000000000000000000000600052603260045260246000fd5b600081519050919050565b7f4e487b7100000000000000000000000000000000000000000000000000000000600052602260045260246000fd5b600060028204905060018216806200066457607f821691505b6020821081036200067a57620006796200061c565b5b50919050565b60008190508160005260206000209050919050565b60006020601f8301049050919050565b600082821b905092915050565b600060088302620006e47fffffffffffffffffffffffffffffffffffffffffffffffffffffffffffffffff82620006a5565b620006f08683620006a5565b95508019841693508086168417925050509392505050565b6000819050919050565b6000819050919050565b60006200073d62000737620007318462000708565b62000712565b62000708565b9050919050565b6000819050919050565b62000759836200071c565b62000771620007688262000744565b848454620006b2565b825550505050565b600090565b6200078862000779565b620007958184846200074e565b505050565b5b81811015620007bd57620007b16000826200077e565b6001810190506200079b565b5050565b601f8211156200080c57620007d68162000680565b620007e18462000695565b81016020851015620007f1578190505b62000809620008008562000695565b8301826200079a565b50505b505050565b600082821c905092915050565b6000620008316000198460080262000811565b1980831691505092915050565b60006200084c83836200081e565b9150826002028217905092915050565b620008678262000611565b67ffffffffffffffff8111156200088357620008826200022f565b5b6200088f82546200064b565b6200089c828285620007c1565b600060209050601f831160018114620008d45760008415620008bf578287015190505b620008cb85826200083e565b8655506200093b565b601f198416620008e48662000680565b60005b828110156200090e57848901518255600182019150602085019450602081019050620008e7565b868310156200092e57848901516200092a601f8916826200081e565b8355505b6001600288020188555050505b505050505050565b7f4e487b7100000000000000000000000000000000000000000000000000000000600052601160045260246000fd5b60006200097f8262000708565b91507fffffffffffffffffffffffffffffffffffffffffffffffffffffffffffffffff8203620009b457620009b362000943565b5b600182019050919050565b6119c580620009cf6000396000f3fe608060405234801561001057600080fd5b50600436106100b45760003560e01c8063609ff1bd11610071578063609ff1bd1461018e57806362564c48146101ac5780639e7b8d61146101ca578063a3ec138d146101e6578063e2ba53f014610219578063e34f11d014610237576100b4565b80630121b93f146100b9578063013cf08b146100d557806309eef43e146101065780632a5de350146101365780632e4176cf146101545780635c19a95c14610172575b600080fd5b6100d360048036038101906100ce9190610f38565b610255565b005b6100ef60048036038101906100ea9190610f38565b6103d0565b6040516100fd929190611004565b60405180910390f35b610120600480360381019061011b9190611092565b61048c565b60405161012d91906110da565b60405180910390f35b61013e6104e5565b60405161014b9190611154565b60405180910390f35b61015c61050b565b604051610169919061117e565b60405180910390f35b61018c60048036038101906101879190611092565b61052f565b005b610196610922565b6040516101a39190611199565b60405180910390f35b6101b46109aa565b6040516101c191906112c0565b60405180910390f35b6101e460048036038101906101df9190611092565b610afa565b005b61020060048036038101906101fb9190611092565b610cb1565b60405161021094939291906112e2565b60405180910390f35b610221610d0e565b60405161022e9190611327565b60405180910390f35b61023f610dca565b60405161024c91906110da565b60405180910390f35b7fcf34ef537ac33ee1ac626ca1587a0a7e8e51561e5514f8cb36afa1c5102b3bab60405161028290611395565b60405180910390a16000600160003373ffffffffffffffffffffffffffffffffffffffff1673ffffffffffffffffffffffffffffffffffffffff16815260200190815260200160002090506000816000015403610314576040517f08c379a000000000000000000000000000000000000000000000000000000000815260040161030b90611401565b60405180910390fd5b8060010160009054906101000a900460ff1615610366576040517f08c379a000000000000000000000000000000000000000000000000000000000815260040161035d9061146d565b60405180910390fd5b60018160010160006101000a81548160ff0219169083151502179055508181600201819055508060000154600283815481106103a5576103a461148d565b5b906000526020600020906002020160010160008282546103c591906114eb565b925050819055505050565b600281815481106103e057600080fd5b90600052602060002090600202016000915090508060000180546104039061154e565b80601f016020809104026020016040519081016040528092919081815260200182805461042f9061154e565b801561047c5780601f106104515761010080835404028352916020019161047c565b820191906000526020600020905b81548152906001019060200180831161045f57829003601f168201915b5050505050908060010154905082565b6000600160008373ffffffffffffffffffffffffffffffffffffffff1673ffffffffffffffffffffffffffffffffffffffff16815260200190815260200160002060010160009054906101000a900460ff169050919050565b600360009054906101000a900473ffffffffffffffffffffffffffffffffffffffff1681565b60008054906101000a900473ffffffffffffffffffffffffffffffffffffffff1681565b6000600160003373ffffffffffffffffffffffffffffffffffffffff1673ffffffffffffffffffffffffffffffffffffffff168152602001908152602001600020905060008160000154036105b9576040517f08c379a00000000000000000000000000000000000000000000000000000000081526004016105b0906115cb565b60405180910390fd5b8060010160009054906101000a900460ff161561060b576040517f08c379a000000000000000000000000000000000000000000000000000000000815260040161060290611637565b60405180910390fd5b3373ffffffffffffffffffffffffffffffffffffffff168273ffffffffffffffffffffffffffffffffffffffff1603610679576040517f08c379a0000000000000000000000000000000000000000000000000000000008152600401610670906116a3565b60405180910390fd5b5b600073ffffffffffffffffffffffffffffffffffffffff16600160008473ffffffffffffffffffffffffffffffffffffffff1673ffffffffffffffffffffffffffffffffffffffff16815260200190815260200160002060010160019054906101000a900473ffffffffffffffffffffffffffffffffffffffff1673ffffffffffffffffffffffffffffffffffffffff16146107e857600160008373ffffffffffffffffffffffffffffffffffffffff1673ffffffffffffffffffffffffffffffffffffffff16815260200190815260200160002060010160019054906101000a900473ffffffffffffffffffffffffffffffffffffffff1691503373ffffffffffffffffffffffffffffffffffffffff168273ffffffffffffffffffffffffffffffffffffffff16036107e3576040517f08c379a00000000000000000000000000000000000000000000000000000000081526004016107da9061170f565b60405180910390fd5b61067a565b6000600160008473ffffffffffffffffffffffffffffffffffffffff1673ffffffffffffffffffffffffffffffffffffffff168152602001908152602001600020905060018160000154101561083d57600080fd5b60018260010160006101000a81548160ff021916908315150217905550828260010160016101000a81548173ffffffffffffffffffffffffffffffffffffffff021916908373ffffffffffffffffffffffffffffffffffffffff1602179055508060010160009054906101000a900460ff16156108fd57816000015460028260020154815481106108d1576108d061148d565b5b906000526020600020906002020160010160008282546108f191906114eb565b9250508190555061091d565b816000015481600001600082825461091591906114eb565b925050819055505b505050565b6000806000905060005b6002805490508110156109a557816002828154811061094e5761094d61148d565b5b9060005260206000209060020201600101541115610992576002818154811061097a5761097961148d565b5b90600052602060002090600202016001015491508092505b808061099d9061172f565b91505061092c565b505090565b6060600060028054905067ffffffffffffffff8111156109cd576109cc611777565b5b604051908082528060200260200182016040528015610a0057816020015b60608152602001906001900390816109eb5790505b50905060005b600280549050811015610af25760028181548110610a2757610a2661148d565b5b90600052602060002090600202016000018054610a439061154e565b80601f0160208091040260200160405190810160405280929190818152602001828054610a6f9061154e565b8015610abc5780601f10610a9157610100808354040283529160200191610abc565b820191906000526020600020905b815481529060010190602001808311610a9f57829003601f168201915b5050505050828281518110610ad457610ad361148d565b5b60200260200101819052508080610aea9061172f565b915050610a06565b508091505090565b60008054906101000a900473ffffffffffffffffffffffffffffffffffffffff1673ffffffffffffffffffffffffffffffffffffffff163373ffffffffffffffffffffffffffffffffffffffff1614610b88576040517f08c379a0000000000000000000000000000000000000000000000000000000008152600401610b7f90611818565b60405180910390fd5b600160008273ffffffffffffffffffffffffffffffffffffffff1673ffffffffffffffffffffffffffffffffffffffff16815260200190815260200160002060010160009054906101000a900460ff1615610c18576040517f08c379a0000000000000000000000000000000000000000000000000000000008152600401610c0f90611884565b60405180910390fd5b6000600160008373ffffffffffffffffffffffffffffffffffffffff1673ffffffffffffffffffffffffffffffffffffffff1681526020019081526020016000206000015414610c6757600080fd5b60018060008373ffffffffffffffffffffffffffffffffffffffff1673ffffffffffffffffffffffffffffffffffffffff1681526020019081526020016000206000018190555050565b60016020528060005260406000206000915090508060000154908060010160009054906101000a900460ff16908060010160019054906101000a900473ffffffffffffffffffffffffffffffffffffffff16908060020154905084565b60606002610d1a610922565b81548110610d2b57610d2a61148d565b5b90600052602060002090600202016000018054610d479061154e565b80601f0160208091040260200160405190810160405280929190818152602001828054610d739061154e565b8015610dc05780601f10610d9557610100808354040283529160200191610dc0565b820191906000526020600020905b815481529060010190602001808311610da357829003601f168201915b5050505050905090565b60008073ffffffffffffffffffffffffffffffffffffffff16600360009054906101000a900473ffffffffffffffffffffffffffffffffffffffff1673ffffffffffffffffffffffffffffffffffffffff1603610e5c576040517f08c379a0000000000000000000000000000000000000000000000000000000008152600401610e5390611916565b60405180910390fd5b600360009054906101000a900473ffffffffffffffffffffffffffffffffffffffff1673ffffffffffffffffffffffffffffffffffffffff166370bd8e93336040518263ffffffff1660e01b8152600401610eb7919061117e565b602060405180830381865afa158015610ed4573d6000803e3d6000fd5b505050506040513d601f19601f82011682018060405250810190610ef89190611962565b905090565b600080fd5b6000819050919050565b610f1581610f02565b8114610f2057600080fd5b50565b600081359050610f3281610f0c565b92915050565b600060208284031215610f4e57610f4d610efd565b5b6000610f5c84828501610f23565b91505092915050565b600081519050919050565b600082825260208201905092915050565b60005b83811015610f9f578082015181840152602081019050610f84565b60008484015250505050565b6000601f19601f8301169050919050565b6000610fc782610f65565b610fd18185610f70565b9350610fe1818560208601610f81565b610fea81610fab565b840191505092915050565b610ffe81610f02565b82525050565b6000604082019050818103600083015261101e8185610fbc565b905061102d6020830184610ff5565b9392505050565b600073ffffffffffffffffffffffffffffffffffffffff82169050919050565b600061105f82611034565b9050919050565b61106f81611054565b811461107a57600080fd5b50565b60008135905061108c81611066565b92915050565b6000602082840312156110a8576110a7610efd565b5b60006110b68482850161107d565b91505092915050565b60008115159050919050565b6110d4816110bf565b82525050565b60006020820190506110ef60008301846110cb565b92915050565b6000819050919050565b600061111a61111561111084611034565b6110f5565b611034565b9050919050565b600061112c826110ff565b9050919050565b600061113e82611121565b9050919050565b61114e81611133565b82525050565b60006020820190506111696000830184611145565b92915050565b61117881611054565b82525050565b6000602082019050611193600083018461116f565b92915050565b60006020820190506111ae6000830184610ff5565b92915050565b600081519050919050565b600082825260208201905092915050565b6000819050602082019050919050565b600082825260208201905092915050565b60006111fc82610f65565b61120681856111e0565b9350611216818560208601610f81565b61121f81610fab565b840191505092915050565b600061123683836111f1565b905092915050565b6000602082019050919050565b6000611256826111b4565b61126081856111bf565b935083602082028501611272856111d0565b8060005b858110156112ae578484038952815161128f858261122a565b945061129a8361123e565b925060208a01995050600181019050611276565b50829750879550505050505092915050565b600060208201905081810360008301526112da818461124b565b905092915050565b60006080820190506112f76000830187610ff5565b61130460208301866110cb565b611311604083018561116f565b61131e6060830184610ff5565b95945050505050565b600060208201905081810360008301526113418184610fbc565b905092915050565b7f7472696e6720746f20766f746500000000000000000000000000000000000000600082015250565b600061137f600d83610f70565b915061138a82611349565b602082019050919050565b600060208201905081810360008301526113ae81611372565b9050919050565b7f486173206e6f20726967687420746f20766f7465000000000000000000000000600082015250565b60006113eb601483610f70565b91506113f6826113b5565b602082019050919050565b6000602082019050818103600083015261141a816113de565b9050919050565b7f416c726561647920766f7465642e000000000000000000000000000000000000600082015250565b6000611457600e83610f70565b915061146282611421565b602082019050919050565b600060208201905081810360008301526114868161144a565b9050919050565b7f4e487b7100000000000000000000000000000000000000000000000000000000600052603260045260246000fd5b7f4e487b7100000000000000000000000000000000000000000000000000000000600052601160045260246000fd5b60006114f682610f02565b915061150183610f02565b9250828201905080821115611519576115186114bc565b5b92915050565b7f4e487b7100000000000000000000000000000000000000000000000000000000600052602260045260246000fd5b6000600282049050600182168061156657607f821691505b6020821081036115795761157861151f565b5b50919050565b7f596f752068617665206e6f20726967687420746f20766f746500000000000000600082015250565b60006115b5601983610f70565b91506115c08261157f565b602082019050919050565b600060208201905081810360008301526115e4816115a8565b9050919050565b7f596f7520616c726561647920766f7465642e0000000000000000000000000000600082015250565b6000611621601283610f70565b915061162c826115eb565b602082019050919050565b6000602082019050818103600083015261165081611614565b9050919050565b7f53656c662d64656c65676174696f6e20697320646973616c6c6f7765642e0000600082015250565b600061168d601e83610f70565b915061169882611657565b602082019050919050565b600060208201905081810360008301526116bc81611680565b9050919050565b7f466f756e64206c6f6f7020696e2064656c65676174696f6e2e00000000000000600082015250565b60006116f9601983610f70565b9150611704826116c3565b602082019050919050565b60006020820190508181036000830152611728816116ec565b9050919050565b600061173a82610f02565b91507fffffffffffffffffffffffffffffffffffffffffffffffffffffffffffffffff820361176c5761176b6114bc565b5b600182019050919050565b7f4e487b7100000000000000000000000000000000000000000000000000000000600052604160045260246000fd5b7f4f6e6c79206368616972706572736f6e2063616e20676976652072696768742060008201527f746f20766f74652e000000000000000000000000000000000000000000000000602082015250565b6000611802602883610f70565b915061180d826117a6565b604082019050919050565b60006020820190508181036000830152611831816117f5565b9050919050565b7f54686520766f74657220616c726561647920766f7465642e0000000000000000600082015250565b600061186e601883610f70565b915061187982611838565b602082019050919050565b6000602082019050818103600083015261189d81611861565b9050919050565b7f5573657250726f66696c6520636f6e74726163742061646472657373206e6f7460008201527f2073657400000000000000000000000000000000000000000000000000000000602082015250565b6000611900602483610f70565b915061190b826118a4565b604082019050919050565b6000602082019050818103600083015261192f816118f3565b9050919050565b61193f816110bf565b811461194a57600080fd5b50565b60008151905061195c81611936565b92915050565b60006020828403121561197857611977610efd565b5b60006119868482850161194d565b9150509291505056fea2646970667358221220167195df3be438f36edbdba2b634b98eb6cae50b1b6aa323a6115c1138bc6d2b64736f6c63430008130033",
  "immutableReferences": {},
  "source": "// SPDX-License-Identifier: GPL-3.0\npragma solidity >=0.7.0 <0.9.0;\nimport \"./UserProfile.sol\";\n\ncontract Ballot {\n    //Defining an event log\n    event Log(string message);\n\n    // This declares a new complex type which will\n    // be used for variables later.\n    // It will represent a single voter.\n    struct Voter {\n        uint weight; // weight is accumulated by delegation\n        bool voted; // if true, that person already voted\n        address delegate; // person delegated to\n        uint vote; // index of the voted proposal\n    }\n\n    // This is a type for a single proposal.\n    struct Proposal {\n        string name; // short name (up to 32 bytes)\n        uint voteCount; // number of accumulated votes\n    }\n\n    address public chairperson;\n\n    // This declares a state variable that\n    // stores a `Voter` struct for each possible address.\n    mapping(address => Voter) public voters;\n\n    // A dynamically-sized array of `Proposal` structs.\n    Proposal[] public proposals;\n\n    /// Create a new ballot to choose one of `proposalNames`.\n    constructor(\n        string[] memory proposalNames,\n        address userProfileContractAddress\n    ) {\n        emit Log(\"Starting to deploy contract\");\n        chairperson = msg.sender;\n        voters[chairperson].weight = 1;\n\n        // Set the address of the UserProfile contract\n        userProfile = UserProfile(userProfileContractAddress);\n\n        // For each of the provided proposal names,\n        // create a new proposal object and add it\n        // to the end of the array.\n        for (uint i = 0; i < proposalNames.length; i++) {\n            // `Proposal({...})` creates a temporary\n            // Proposal object and `proposals.push(...)`\n            // appends it to the end of `proposals`.\n            proposals.push(\n                Proposal({name: string(proposalNames[i]), voteCount: 0})\n            );\n        }\n    }\n\n    UserProfile public userProfile;\n\n    // Give `voter` the right to vote on this ballot.\n    // May only be called by `chairperson`.\n    function giveRightToVote(address voter) external {\n        // If the first argument of `require` evaluates\n        // to `false`, execution terminates and all\n        // changes to the state and to Ether balances\n        // are reverted.\n        // This used to consume all gas in old EVM versions, but\n        // not anymore.\n        // It is often a good idea to use `require` to check if\n        // functions are called correctly.\n        // As a second argument, you can also provide an\n        // explanation about what went wrong.\n        require(\n            msg.sender == chairperson,\n            \"Only chairperson can give right to vote.\"\n        );\n        require(!voters[voter].voted, \"The voter already voted.\");\n        require(voters[voter].weight == 0);\n        voters[voter].weight = 1;\n    }\n\n    /// Delegate your vote to the voter `to`.\n    function delegate(address to) external {\n        // assigns reference\n        Voter storage sender = voters[msg.sender];\n        require(sender.weight != 0, \"You have no right to vote\");\n        require(!sender.voted, \"You already voted.\");\n\n        require(to != msg.sender, \"Self-delegation is disallowed.\");\n\n        // Forward the delegation as long as\n        // `to` also delegated.\n        // In general, such loops are very dangerous,\n        // because if they run too long, they might\n        // need more gas than is available in a block.\n        // In this case, the delegation will not be executed,\n        // but in other situations, such loops might\n        // cause a contract to get \"stuck\" completely.\n        while (voters[to].delegate != address(0)) {\n            to = voters[to].delegate;\n\n            // We found a loop in the delegation, not allowed.\n            require(to != msg.sender, \"Found loop in delegation.\");\n        }\n\n        Voter storage delegate_ = voters[to];\n\n        // Voters cannot delegate to accounts that cannot vote.\n        require(delegate_.weight >= 1);\n\n        // Since `sender` is a reference, this\n        // modifies `voters[msg.sender]`.\n        sender.voted = true;\n        sender.delegate = to;\n\n        if (delegate_.voted) {\n            // If the delegate already voted,\n            // directly add to the number of votes\n            proposals[delegate_.vote].voteCount += sender.weight;\n        } else {\n            // If the delegate did not vote yet,\n            // add to her weight.\n            delegate_.weight += sender.weight;\n        }\n    }\n\n    /// Give your vote (including votes delegated to you)\n    /// to proposal `proposals[proposal].name`.\n    function vote(uint proposal) public {\n        emit Log(\"tring to vote\");\n        Voter storage sender = voters[msg.sender];\n        require(sender.weight != 0, \"Has no right to vote\");\n        require(!sender.voted, \"Already voted.\");\n        sender.voted = true;\n        sender.vote = proposal;\n\n        // If `proposal` is out of the range of the array,\n        // this will throw automatically and revert all\n        // changes.\n        proposals[proposal].voteCount += sender.weight;\n    }\n\n    /// @dev Computes the winning proposal taking all\n    /// previous votes into account.\n    function winningProposal() public view returns (uint winningProposal_) {\n        uint winningVoteCount = 0;\n        for (uint p = 0; p < proposals.length; p++) {\n            if (proposals[p].voteCount > winningVoteCount) {\n                winningVoteCount = proposals[p].voteCount;\n                winningProposal_ = p;\n            }\n        }\n    }\n\n    // Calls winningProposal() function to get the index\n    // of the winner contained in the proposals array and then\n    // returns the name of the winner\n    function winnerName() external view returns (string memory winnerName_) {\n        winnerName_ = proposals[winningProposal()].name;\n    }\n\n    function checkEligibilityToVote() external view returns (bool) {\n        require(\n            address(userProfile) != address(0),\n            \"UserProfile contract address not set\"\n        );\n        return userProfile.isEligibleToVote(msg.sender);\n    }\n\n    function getProposals() public view returns (string[] memory) {\n        string[] memory proposalNames = new string[](proposals.length);\n        for (uint i = 0; i < proposals.length; i++) {\n            proposalNames[i] = proposals[i].name;\n        }\n        return proposalNames;\n    }\n\n    function hasVoted(address user) public view returns (bool) {\n        return voters[user].voted;\n    }\n}\n",
  "sourcePath": "/Users/Abhinav/Desktop/559/final-project/contracts/Ballot.sol",
  "compiler": {
    "name": "solc",
    "version": "0.8.19+commit.7dd6d404.Emscripten.clang"
  },
  "schemaVersion": "3.4.16",
  "updatedAt": "2024-04-27T23:31:40.886Z",
  "networkType": "ethereum",
  "devdoc": {
    "kind": "dev",
    "methods": {
      "winningProposal()": {
        "details": "Computes the winning proposal taking all previous votes into account."
      }
    },
    "version": 1
  },
  "userdoc": {
    "kind": "user",
    "methods": {
      "constructor": {
        "notice": "Create a new ballot to choose one of `proposalNames`."
      },
      "delegate(address)": {
        "notice": "Delegate your vote to the voter `to`."
      },
      "vote(uint256)": {
        "notice": "Give your vote (including votes delegated to you) to proposal `proposals[proposal].name`."
      }
    },
    "version": 1
  }
}