{
  "contractName": "Ballot",
  "abi": [
    {
      "inputs": [
        {
          "internalType": "string[]",
          "name": "proposalNames",
          "type": "string[]"
        },
        {
          "internalType": "address",
          "name": "userProfileContractAddress",
          "type": "address"
        }
      ],
      "stateMutability": "nonpayable",
      "type": "constructor"
    },
    {
      "anonymous": false,
      "inputs": [
        {
          "indexed": false,
          "internalType": "string",
          "name": "message",
          "type": "string"
        }
      ],
      "name": "Log",
      "type": "event"
    },
    {
      "inputs": [],
      "name": "chairperson",
      "outputs": [
        {
          "internalType": "address",
          "name": "",
          "type": "address"
        }
      ],
      "stateMutability": "view",
      "type": "function",
      "constant": true
    },
    {
      "inputs": [
        {
          "internalType": "uint256",
          "name": "",
          "type": "uint256"
        }
      ],
      "name": "proposals",
      "outputs": [
        {
          "internalType": "string",
          "name": "name",
          "type": "string"
        },
        {
          "internalType": "uint256",
          "name": "voteCount",
          "type": "uint256"
        }
      ],
      "stateMutability": "view",
      "type": "function",
      "constant": true
    },
    {
      "inputs": [],
      "name": "userProfile",
      "outputs": [
        {
          "internalType": "contract UserProfile",
          "name": "",
          "type": "address"
        }
      ],
      "stateMutability": "view",
      "type": "function",
      "constant": true
    },
    {
      "inputs": [
        {
          "internalType": "uint256",
          "name": "",
          "type": "uint256"
        }
      ],
      "name": "voters",
      "outputs": [
        {
          "internalType": "address",
          "name": "userAddress",
          "type": "address"
        },
        {
          "internalType": "uint256",
          "name": "weight",
          "type": "uint256"
        },
        {
          "internalType": "bool",
          "name": "voted",
          "type": "bool"
        },
        {
          "internalType": "address",
          "name": "delegate",
          "type": "address"
        },
        {
          "internalType": "uint256",
          "name": "vote",
          "type": "uint256"
        }
      ],
      "stateMutability": "view",
      "type": "function",
      "constant": true
    },
    {
      "inputs": [
        {
          "internalType": "address",
          "name": "to",
          "type": "address"
        }
      ],
      "name": "delegate",
      "outputs": [],
      "stateMutability": "nonpayable",
      "type": "function"
    },
    {
      "inputs": [
        {
          "internalType": "uint256",
          "name": "proposal",
          "type": "uint256"
        }
      ],
      "name": "vote",
      "outputs": [],
      "stateMutability": "nonpayable",
      "type": "function"
    },
    {
      "inputs": [],
      "name": "winningProposal",
      "outputs": [
        {
          "internalType": "uint256",
          "name": "winningProposal_",
          "type": "uint256"
        }
      ],
      "stateMutability": "view",
      "type": "function",
      "constant": true
    },
    {
      "inputs": [],
      "name": "winnerName",
      "outputs": [
        {
          "internalType": "string",
          "name": "winnerName_",
          "type": "string"
        }
      ],
      "stateMutability": "view",
      "type": "function",
      "constant": true
    },
    {
      "inputs": [],
      "name": "checkEligibilityToVote",
      "outputs": [
        {
          "internalType": "bool",
          "name": "",
          "type": "bool"
        }
      ],
      "stateMutability": "view",
      "type": "function",
      "constant": true
    },
    {
      "inputs": [],
      "name": "getProposals",
      "outputs": [
        {
          "internalType": "string[]",
          "name": "",
          "type": "string[]"
        }
      ],
      "stateMutability": "view",
      "type": "function",
      "constant": true
    },
    {
      "inputs": [
        {
          "internalType": "address",
          "name": "user",
          "type": "address"
        }
      ],
      "name": "hasVoted",
      "outputs": [
        {
          "internalType": "bool",
          "name": "",
          "type": "bool"
        }
      ],
      "stateMutability": "view",
      "type": "function",
      "constant": true
    },
    {
      "inputs": [
        {
          "internalType": "address",
          "name": "user",
          "type": "address"
        }
      ],
      "name": "initializeVoter",
      "outputs": [],
      "stateMutability": "nonpayable",
      "type": "function"
    },
    {
      "inputs": [
        {
          "internalType": "address",
          "name": "_address",
          "type": "address"
        }
      ],
      "name": "getVoterByAddress",
      "outputs": [
        {
          "internalType": "uint256",
          "name": "index",
          "type": "uint256"
        }
      ],
      "stateMutability": "view",
      "type": "function",
      "constant": true
    },
    {
      "inputs": [
        {
          "internalType": "address",
          "name": "user",
          "type": "address"
        }
      ],
      "name": "checkVoterExists",
      "outputs": [
        {
          "internalType": "bool",
          "name": "",
          "type": "bool"
        }
      ],
      "stateMutability": "view",
      "type": "function",
      "constant": true
    },
    {
      "inputs": [
        {
          "internalType": "uint256",
          "name": "proposalIndex",
          "type": "uint256"
        }
      ],
      "name": "getProposalDetails",
      "outputs": [
        {
          "internalType": "string",
          "name": "",
          "type": "string"
        },
        {
          "internalType": "uint256",
          "name": "",
          "type": "uint256"
        }
      ],
      "stateMutability": "view",
      "type": "function",
      "constant": true
    }
  ],
  "bytecode": "0x60806040523480156200001157600080fd5b5060405162002708380380620027088339818101604052810190620000379190620005d9565b7fcf34ef537ac33ee1ac626ca1587a0a7e8e51561e5514f8cb36afa1c5102b3bab6040516200006690620006a0565b60405180910390a1336000806101000a81548173ffffffffffffffffffffffffffffffffffffffff021916908373ffffffffffffffffffffffffffffffffffffffff16021790555060016040518060a001604052803373ffffffffffffffffffffffffffffffffffffffff16815260200160018152602001600015158152602001600073ffffffffffffffffffffffffffffffffffffffff1681526020016000815250908060018154018082558091505060019003906000526020600020906004020160009091909190915060008201518160000160006101000a81548173ffffffffffffffffffffffffffffffffffffffff021916908373ffffffffffffffffffffffffffffffffffffffff1602179055506020820151816001015560408201518160020160006101000a81548160ff02191690831515021790555060608201518160020160016101000a81548173ffffffffffffffffffffffffffffffffffffffff021916908373ffffffffffffffffffffffffffffffffffffffff16021790555060808201518160030155505080600360006101000a81548173ffffffffffffffffffffffffffffffffffffffff021916908373ffffffffffffffffffffffffffffffffffffffff16021790555060005b8251811015620002dc5760026040518060400160405280858481518110620002675762000266620006c2565b5b60200260200101518152602001600081525090806001815401808255809150506001900390600052602060002090600202016000909190919091506000820151816000019081620002b991906200093c565b506020820151816001015550508080620002d39062000a52565b9150506200023a565b50505062000a9f565b6000604051905090565b600080fd5b600080fd5b600080fd5b6000601f19601f8301169050919050565b7f4e487b7100000000000000000000000000000000000000000000000000000000600052604160045260246000fd5b6200034982620002fe565b810181811067ffffffffffffffff821117156200036b576200036a6200030f565b5b80604052505050565b600062000380620002e5565b90506200038e82826200033e565b919050565b600067ffffffffffffffff821115620003b157620003b06200030f565b5b602082029050602081019050919050565b600080fd5b600080fd5b600067ffffffffffffffff821115620003ea57620003e96200030f565b5b620003f582620002fe565b9050602081019050919050565b60005b838110156200042257808201518184015260208101905062000405565b60008484015250505050565b6000620004456200043f84620003cc565b62000374565b905082815260208101848484011115620004645762000463620003c7565b5b6200047184828562000402565b509392505050565b600082601f830112620004915762000490620002f9565b5b8151620004a38482602086016200042e565b91505092915050565b6000620004c3620004bd8462000393565b62000374565b90508083825260208201905060208402830185811115620004e957620004e8620003c2565b5b835b818110156200053757805167ffffffffffffffff811115620005125762000511620002f9565b5b80860162000521898262000479565b85526020850194505050602081019050620004eb565b5050509392505050565b600082601f830112620005595762000558620002f9565b5b81516200056b848260208601620004ac565b91505092915050565b600073ffffffffffffffffffffffffffffffffffffffff82169050919050565b6000620005a18262000574565b9050919050565b620005b38162000594565b8114620005bf57600080fd5b50565b600081519050620005d381620005a8565b92915050565b60008060408385031215620005f357620005f2620002ef565b5b600083015167ffffffffffffffff811115620006145762000613620002f4565b5b620006228582860162000541565b92505060206200063585828601620005c2565b9150509250929050565b600082825260208201905092915050565b7f5374617274696e6720746f206465706c6f7920636f6e74726163740000000000600082015250565b600062000688601b836200063f565b9150620006958262000650565b602082019050919050565b60006020820190508181036000830152620006bb8162000679565b9050919050565b7f4e487b7100000000000000000000000000000000000000000000000000000000600052603260045260246000fd5b600081519050919050565b7f4e487b7100000000000000000000000000000000000000000000000000000000600052602260045260246000fd5b600060028204905060018216806200074457607f821691505b6020821081036200075a5762000759620006fc565b5b50919050565b60008190508160005260206000209050919050565b60006020601f8301049050919050565b600082821b905092915050565b600060088302620007c47fffffffffffffffffffffffffffffffffffffffffffffffffffffffffffffffff8262000785565b620007d0868362000785565b95508019841693508086168417925050509392505050565b6000819050919050565b6000819050919050565b60006200081d620008176200081184620007e8565b620007f2565b620007e8565b9050919050565b6000819050919050565b6200083983620007fc565b62000851620008488262000824565b84845462000792565b825550505050565b600090565b6200086862000859565b620008758184846200082e565b505050565b5b818110156200089d57620008916000826200085e565b6001810190506200087b565b5050565b601f821115620008ec57620008b68162000760565b620008c18462000775565b81016020851015620008d1578190505b620008e9620008e08562000775565b8301826200087a565b50505b505050565b600082821c905092915050565b60006200091160001984600802620008f1565b1980831691505092915050565b60006200092c8383620008fe565b9150826002028217905092915050565b6200094782620006f1565b67ffffffffffffffff8111156200096357620009626200030f565b5b6200096f82546200072b565b6200097c828285620008a1565b600060209050601f831160018114620009b457600084156200099f578287015190505b620009ab85826200091e565b86555062000a1b565b601f198416620009c48662000760565b60005b82811015620009ee57848901518255600182019150602085019450602081019050620009c7565b8683101562000a0e578489015162000a0a601f891682620008fe565b8355505b6001600288020188555050505b505050505050565b7f4e487b7100000000000000000000000000000000000000000000000000000000600052601160045260246000fd5b600062000a5f82620007e8565b91507fffffffffffffffffffffffffffffffffffffffffffffffffffffffffffffffff820362000a945762000a9362000a23565b5b600182019050919050565b611c598062000aaf6000396000f3fe608060405234801561001057600080fd5b50600436106100f55760003560e01c80635c19a95c11610097578063c1138ad811610066578063c1138ad81461029c578063da58c7d9146102b8578063e2ba53f0146102ec578063e34f11d01461030a576100f5565b80635c19a95c14610214578063609ff1bd1461023057806362564c481461024e57806366a503531461026c576100f5565b80632a5de350116100d35780632a5de350146101775780632e4176cf146101955780633b4d01a7146101b35780634bdd7585146101e4576100f5565b80630121b93f146100fa578063013cf08b1461011657806309eef43e14610147575b600080fd5b610114600480360381019061010f9190611250565b610328565b005b610130600480360381019061012b9190611250565b610494565b60405161013e92919061131c565b60405180910390f35b610161600480360381019061015c91906113aa565b610550565b60405161016e91906113f2565b60405180910390f35b61017f610594565b60405161018c919061146c565b60405180910390f35b61019d6105ba565b6040516101aa9190611496565b60405180910390f35b6101cd60048036038101906101c89190611250565b6105de565b6040516101db92919061131c565b60405180910390f35b6101fe60048036038101906101f991906113aa565b6106c2565b60405161020b91906114b1565b60405180910390f35b61022e600480360381019061022991906113aa565b610772565b005b610238610bbb565b60405161024591906114b1565b60405180910390f35b610256610c43565b60405161026391906115d8565b60405180910390f35b610286600480360381019061028191906113aa565b610d93565b60405161029391906113f2565b60405180910390f35b6102b660048036038101906102b191906113aa565b610e48565b005b6102d260048036038101906102cd9190611250565b610f93565b6040516102e39594939291906115fa565b60405180910390f35b6102f4611026565b604051610301919061164d565b60405180910390f35b6103126110e2565b60405161031f91906113f2565b60405180910390f35b7fcf34ef537ac33ee1ac626ca1587a0a7e8e51561e5514f8cb36afa1c5102b3bab604051610355906116bb565b60405180910390a16000610368336106c2565b90506000600182815481106103805761037f6116db565b5b9060005260206000209060040201905060008160010154036103d7576040517f08c379a00000000000000000000000000000000000000000000000000000000081526004016103ce90611756565b60405180910390fd5b8060020160009054906101000a900460ff1615610429576040517f08c379a0000000000000000000000000000000000000000000000000000000008152600401610420906117c2565b60405180910390fd5b60018160020160006101000a81548160ff021916908315150217905550828160030181905550806001015460028481548110610468576104676116db565b5b906000526020600020906002020160010160008282546104889190611811565b92505081905550505050565b600281815481106104a457600080fd5b90600052602060002090600202016000915090508060000180546104c790611874565b80601f01602080910402602001604051908101604052809291908181526020018280546104f390611874565b80156105405780601f1061051557610100808354040283529160200191610540565b820191906000526020600020905b81548152906001019060200180831161052357829003601f168201915b5050505050908060010154905082565b6000600161055d836106c2565b8154811061056e5761056d6116db565b5b906000526020600020906004020160020160009054906101000a900460ff169050919050565b600360009054906101000a900473ffffffffffffffffffffffffffffffffffffffff1681565b60008054906101000a900473ffffffffffffffffffffffffffffffffffffffff1681565b6060600080600284815481106105f7576105f66116db565b5b906000526020600020906002020160405180604001604052908160008201805461062090611874565b80601f016020809104026020016040519081016040528092919081815260200182805461064c90611874565b80156106995780601f1061066e57610100808354040283529160200191610699565b820191906000526020600020905b81548152906001019060200180831161067c57829003601f168201915b505050505081526020016001820154815250509050806000015181602001519250925050915091565b600080600090505b60018054905081101561076b57600181815481106106eb576106ea6116db565b5b906000526020600020906004020160000160009054906101000a900473ffffffffffffffffffffffffffffffffffffffff1673ffffffffffffffffffffffffffffffffffffffff168373ffffffffffffffffffffffffffffffffffffffff1603610758578091505061076d565b8080610763906118a5565b9150506106ca565b505b919050565b7fcf34ef537ac33ee1ac626ca1587a0a7e8e51561e5514f8cb36afa1c5102b3bab60405161079f90611939565b60405180910390a160006107b2336106c2565b90506000600182815481106107ca576107c96116db565b5b906000526020600020906004020190506000816001015403610821576040517f08c379a0000000000000000000000000000000000000000000000000000000008152600401610818906119a5565b60405180910390fd5b8060020160009054906101000a900460ff1615610873576040517f08c379a000000000000000000000000000000000000000000000000000000000815260040161086a90611a11565b60405180910390fd5b3373ffffffffffffffffffffffffffffffffffffffff168373ffffffffffffffffffffffffffffffffffffffff16036108e1576040517f08c379a00000000000000000000000000000000000000000000000000000000081526004016108d890611a7d565b60405180910390fd5b5b600073ffffffffffffffffffffffffffffffffffffffff166001610905856106c2565b81548110610916576109156116db565b5b906000526020600020906004020160020160019054906101000a900473ffffffffffffffffffffffffffffffffffffffff1673ffffffffffffffffffffffffffffffffffffffff1614610a2657600161096e846106c2565b8154811061097f5761097e6116db565b5b906000526020600020906004020160020160019054906101000a900473ffffffffffffffffffffffffffffffffffffffff1692503373ffffffffffffffffffffffffffffffffffffffff168373ffffffffffffffffffffffffffffffffffffffff1603610a21576040517f08c379a0000000000000000000000000000000000000000000000000000000008152600401610a1890611ae9565b60405180910390fd5b6108e2565b6000610a3184610d93565b905080610a4257610a4184610e48565b5b60006001610a4f866106c2565b81548110610a6057610a5f6116db565b5b90600052602060002090600402019050600181600101541015610a8257600080fd5b60018360020160006101000a81548160ff021916908315150217905550848360020160016101000a81548173ffffffffffffffffffffffffffffffffffffffff021916908373ffffffffffffffffffffffffffffffffffffffff1602179055506001610aed866106c2565b81548110610afe57610afd6116db565b5b906000526020600020906004020160020160009054906101000a900460ff1615610b9457826001015460026001610b34886106c2565b81548110610b4557610b446116db565b5b90600052602060002090600402016003015481548110610b6857610b676116db565b5b90600052602060002090600202016001016000828254610b889190611811565b92505081905550610bb4565b8260010154816001016000828254610bac9190611811565b925050819055505b5050505050565b6000806000905060005b600280549050811015610c3e578160028281548110610be757610be66116db565b5b9060005260206000209060020201600101541115610c2b5760028181548110610c1357610c126116db565b5b90600052602060002090600202016001015491508092505b8080610c36906118a5565b915050610bc5565b505090565b6060600060028054905067ffffffffffffffff811115610c6657610c65611b09565b5b604051908082528060200260200182016040528015610c9957816020015b6060815260200190600190039081610c845790505b50905060005b600280549050811015610d8b5760028181548110610cc057610cbf6116db565b5b90600052602060002090600202016000018054610cdc90611874565b80601f0160208091040260200160405190810160405280929190818152602001828054610d0890611874565b8015610d555780601f10610d2a57610100808354040283529160200191610d55565b820191906000526020600020905b815481529060010190602001808311610d3857829003601f168201915b5050505050828281518110610d6d57610d6c6116db565b5b60200260200101819052508080610d83906118a5565b915050610c9f565b508091505090565b600080600090505b600180549050811015610e3d5760018181548110610dbc57610dbb6116db565b5b906000526020600020906004020160000160009054906101000a900473ffffffffffffffffffffffffffffffffffffffff1673ffffffffffffffffffffffffffffffffffffffff168373ffffffffffffffffffffffffffffffffffffffff1603610e2a576001915050610e43565b8080610e35906118a5565b915050610d9b565b50600090505b919050565b60016040518060a001604052808373ffffffffffffffffffffffffffffffffffffffff16815260200160018152602001600015158152602001600073ffffffffffffffffffffffffffffffffffffffff1681526020016000815250908060018154018082558091505060019003906000526020600020906004020160009091909190915060008201518160000160006101000a81548173ffffffffffffffffffffffffffffffffffffffff021916908373ffffffffffffffffffffffffffffffffffffffff1602179055506020820151816001015560408201518160020160006101000a81548160ff02191690831515021790555060608201518160020160016101000a81548173ffffffffffffffffffffffffffffffffffffffff021916908373ffffffffffffffffffffffffffffffffffffffff16021790555060808201518160030155505050565b60018181548110610fa357600080fd5b90600052602060002090600402016000915090508060000160009054906101000a900473ffffffffffffffffffffffffffffffffffffffff16908060010154908060020160009054906101000a900460ff16908060020160019054906101000a900473ffffffffffffffffffffffffffffffffffffffff16908060030154905085565b60606002611032610bbb565b81548110611043576110426116db565b5b9060005260206000209060020201600001805461105f90611874565b80601f016020809104026020016040519081016040528092919081815260200182805461108b90611874565b80156110d85780601f106110ad576101008083540402835291602001916110d8565b820191906000526020600020905b8154815290600101906020018083116110bb57829003601f168201915b5050505050905090565b60008073ffffffffffffffffffffffffffffffffffffffff16600360009054906101000a900473ffffffffffffffffffffffffffffffffffffffff1673ffffffffffffffffffffffffffffffffffffffff1603611174576040517f08c379a000000000000000000000000000000000000000000000000000000000815260040161116b90611baa565b60405180910390fd5b600360009054906101000a900473ffffffffffffffffffffffffffffffffffffffff1673ffffffffffffffffffffffffffffffffffffffff166370bd8e93336040518263ffffffff1660e01b81526004016111cf9190611496565b602060405180830381865afa1580156111ec573d6000803e3d6000fd5b505050506040513d601f19601f820116820180604052508101906112109190611bf6565b905090565b600080fd5b6000819050919050565b61122d8161121a565b811461123857600080fd5b50565b60008135905061124a81611224565b92915050565b60006020828403121561126657611265611215565b5b60006112748482850161123b565b91505092915050565b600081519050919050565b600082825260208201905092915050565b60005b838110156112b757808201518184015260208101905061129c565b60008484015250505050565b6000601f19601f8301169050919050565b60006112df8261127d565b6112e98185611288565b93506112f9818560208601611299565b611302816112c3565b840191505092915050565b6113168161121a565b82525050565b6000604082019050818103600083015261133681856112d4565b9050611345602083018461130d565b9392505050565b600073ffffffffffffffffffffffffffffffffffffffff82169050919050565b60006113778261134c565b9050919050565b6113878161136c565b811461139257600080fd5b50565b6000813590506113a48161137e565b92915050565b6000602082840312156113c0576113bf611215565b5b60006113ce84828501611395565b91505092915050565b60008115159050919050565b6113ec816113d7565b82525050565b600060208201905061140760008301846113e3565b92915050565b6000819050919050565b600061143261142d6114288461134c565b61140d565b61134c565b9050919050565b600061144482611417565b9050919050565b600061145682611439565b9050919050565b6114668161144b565b82525050565b6000602082019050611481600083018461145d565b92915050565b6114908161136c565b82525050565b60006020820190506114ab6000830184611487565b92915050565b60006020820190506114c6600083018461130d565b92915050565b600081519050919050565b600082825260208201905092915050565b6000819050602082019050919050565b600082825260208201905092915050565b60006115148261127d565b61151e81856114f8565b935061152e818560208601611299565b611537816112c3565b840191505092915050565b600061154e8383611509565b905092915050565b6000602082019050919050565b600061156e826114cc565b61157881856114d7565b93508360208202850161158a856114e8565b8060005b858110156115c657848403895281516115a78582611542565b94506115b283611556565b925060208a0199505060018101905061158e565b50829750879550505050505092915050565b600060208201905081810360008301526115f28184611563565b905092915050565b600060a08201905061160f6000830188611487565b61161c602083018761130d565b61162960408301866113e3565b6116366060830185611487565b611643608083018461130d565b9695505050505050565b6000602082019050818103600083015261166781846112d4565b905092915050565b7f547279696e6720746f20766f7465000000000000000000000000000000000000600082015250565b60006116a5600e83611288565b91506116b08261166f565b602082019050919050565b600060208201905081810360008301526116d481611698565b9050919050565b7f4e487b7100000000000000000000000000000000000000000000000000000000600052603260045260246000fd5b7f486173206e6f20726967687420746f20766f7465000000000000000000000000600082015250565b6000611740601483611288565b915061174b8261170a565b602082019050919050565b6000602082019050818103600083015261176f81611733565b9050919050565b7f416c726561647920766f7465642e000000000000000000000000000000000000600082015250565b60006117ac600e83611288565b91506117b782611776565b602082019050919050565b600060208201905081810360008301526117db8161179f565b9050919050565b7f4e487b7100000000000000000000000000000000000000000000000000000000600052601160045260246000fd5b600061181c8261121a565b91506118278361121a565b925082820190508082111561183f5761183e6117e2565b5b92915050565b7f4e487b7100000000000000000000000000000000000000000000000000000000600052602260045260246000fd5b6000600282049050600182168061188c57607f821691505b60208210810361189f5761189e611845565b5b50919050565b60006118b08261121a565b91507fffffffffffffffffffffffffffffffffffffffffffffffffffffffffffffffff82036118e2576118e16117e2565b5b600182019050919050565b7f547279696e6720746f2064656c65676174650000000000000000000000000000600082015250565b6000611923601283611288565b915061192e826118ed565b602082019050919050565b6000602082019050818103600083015261195281611916565b9050919050565b7f596f752068617665206e6f20726967687420746f20766f746500000000000000600082015250565b600061198f601983611288565b915061199a82611959565b602082019050919050565b600060208201905081810360008301526119be81611982565b9050919050565b7f596f7520616c726561647920766f7465642e0000000000000000000000000000600082015250565b60006119fb601283611288565b9150611a06826119c5565b602082019050919050565b60006020820190508181036000830152611a2a816119ee565b9050919050565b7f53656c662d64656c65676174696f6e20697320646973616c6c6f7765642e0000600082015250565b6000611a67601e83611288565b9150611a7282611a31565b602082019050919050565b60006020820190508181036000830152611a9681611a5a565b9050919050565b7f466f756e64206c6f6f7020696e2064656c65676174696f6e2e00000000000000600082015250565b6000611ad3601983611288565b9150611ade82611a9d565b602082019050919050565b60006020820190508181036000830152611b0281611ac6565b9050919050565b7f4e487b7100000000000000000000000000000000000000000000000000000000600052604160045260246000fd5b7f5573657250726f66696c6520636f6e74726163742061646472657373206e6f7460008201527f2073657400000000000000000000000000000000000000000000000000000000602082015250565b6000611b94602483611288565b9150611b9f82611b38565b604082019050919050565b60006020820190508181036000830152611bc381611b87565b9050919050565b611bd3816113d7565b8114611bde57600080fd5b50565b600081519050611bf081611bca565b92915050565b600060208284031215611c0c57611c0b611215565b5b6000611c1a84828501611be1565b9150509291505056fea2646970667358221220ad164ea089d51c305f45621b21eaadabe2e8317b33adff89995a42a2b3badfa964736f6c63430008130033",
  "immutableReferences": {},
  "source": "pragma solidity >=0.7.0 <0.9.0;\r\nimport \"./UserProfile.sol\";\r\n\r\ncontract Ballot {\r\n    //Defining an event log\r\n    event Log(string message);\r\n\r\n    // This declares a new complex type which will\r\n    // be used for variables later.\r\n    // It will represent a single voter.\r\n    struct Voter {\r\n        address userAddress;\r\n        uint weight; // weight is accumulated by delegation\r\n        bool voted; // if true, that person already voted\r\n        address delegate; // person delegated to\r\n        uint vote; // index of the voted proposal\r\n    }\r\n\r\n    // This is a type for a single proposal.\r\n    struct Proposal {\r\n        string name; // short name (up to 32 bytes)\r\n        uint voteCount; // number of accumulated votes\r\n    }\r\n\r\n    address public chairperson;\r\n\r\n    // This declares a state variable that\r\n    // stores a `Voter` struct for each possible address.\r\n    Voter[] public voters;\r\n\r\n    // A dynamically-sized array of `Proposal` structs.\r\n    Proposal[] public proposals;\r\n\r\n    /// Create a new ballot to choose one of `proposalNames`.\r\n    constructor(\r\n        string[] memory proposalNames,\r\n        address userProfileContractAddress\r\n    ) {\r\n        emit Log(\"Starting to deploy contract\");\r\n        chairperson = msg.sender;\r\n        voters.push(\r\n            Voter({\r\n                userAddress: msg.sender,\r\n                weight: 1,\r\n                voted: false,\r\n                delegate: address(0),\r\n                vote: 0\r\n            })\r\n        );\r\n\r\n        // Set the address of the UserProfile contract\r\n        userProfile = UserProfile(userProfileContractAddress);\r\n\r\n        // For each of the provided proposal names,\r\n        // create a new proposal object and add it\r\n        // to the end of the array.\r\n        for (uint i = 0; i < proposalNames.length; i++) {\r\n            // `Proposal({...})` creates a temporary\r\n            // Proposal object and `proposals.push(...)`\r\n            // appends it to the end of `proposals`.\r\n            proposals.push(\r\n                Proposal({name: string(proposalNames[i]), voteCount: 0})\r\n            );\r\n        }\r\n    }\r\n\r\n    UserProfile public userProfile;\r\n\r\n    // Give `voter` the right to vote on this ballot.\r\n    // May only be called by `chairperson`.\r\n    /*function giveRightToVote(address voter) external {\r\n        require(\r\n            msg.sender == chairperson,\r\n            \"Only chairperson can give right to vote.\"\r\n        );\r\n        require(!voters[voter].voted, \"The voter already voted.\");\r\n        require(voters[voter].weight == 0);\r\n        voters.push(\r\n            Voter({weight: 1, voted: false, delegate: address(0), vote: 0})\r\n        );\r\n    }*/\r\n\r\n    /// Delegate your vote to the voter `to`.\r\n    function delegate(address to) public {\r\n        emit Log(\"Trying to delegate\");\r\n        uint voterIndex = getVoterByAddress(msg.sender);\r\n        Voter storage sender = voters[voterIndex];\r\n        require(sender.weight != 0, \"You have no right to vote\");\r\n        require(!sender.voted, \"You already voted.\");\r\n\r\n        require(to != msg.sender, \"Self-delegation is disallowed.\");\r\n\r\n        // Forward the delegation as long as\r\n        // `to` also delegated.\r\n        // In general, such loops are very dangerous,\r\n        // because if they run too long, they might\r\n        // need more gas than is available in a block.\r\n        // In this case, the delegation will not be executed,\r\n        // but in other situations, such loops might\r\n        // cause a contract to get \"stuck\" completely.\r\n        while (voters[getVoterByAddress(to)].delegate != address(0)) {\r\n            to = voters[getVoterByAddress(to)].delegate;\r\n\r\n            // We found a loop in the delegation, not allowed.\r\n            require(to != msg.sender, \"Found loop in delegation.\");\r\n        }\r\n        bool voterExists = checkVoterExists(to);\r\n        if (!voterExists) {\r\n            initializeVoter(to);\r\n        }\r\n        Voter storage delegate_ = voters[getVoterByAddress(to)];\r\n\r\n        // Voters cannot delegate to accounts that cannot vote.\r\n        require(delegate_.weight >= 1);\r\n\r\n        // Since `sender` is a reference, this\r\n        // modifies `voters[msg.sender]`.\r\n        sender.voted = true;\r\n        sender.delegate = to;\r\n\r\n        if (voters[getVoterByAddress(to)].voted) {\r\n            // If the delegate already voted,\r\n            // directly add to the number of votes\r\n            proposals[voters[getVoterByAddress(to)].vote].voteCount += sender\r\n                .weight;\r\n        } else {\r\n            // If the delegate did not vote yet,\r\n            // add to her weight.\r\n            delegate_.weight += sender.weight;\r\n        }\r\n    }\r\n\r\n    /// Give your vote (including votes delegated to you)\r\n    /// to proposal `proposals[proposal].name`.\r\n    function vote(uint proposal) public {\r\n        emit Log(\"Trying to vote\");\r\n        uint voterIndex = getVoterByAddress(msg.sender);\r\n        Voter storage sender = voters[voterIndex];\r\n        require(sender.weight != 0, \"Has no right to vote\");\r\n        require(!sender.voted, \"Already voted.\");\r\n        sender.voted = bool(true);\r\n        sender.vote = uint(proposal);\r\n\r\n        // If `proposal` is out of the range of the array,\r\n        // this will throw automatically and revert all\r\n        // changes.\r\n        proposals[proposal].voteCount += sender.weight;\r\n    }\r\n\r\n    /// @dev Computes the winning proposal taking all\r\n    /// previous votes into account.\r\n    function winningProposal() public view returns (uint winningProposal_) {\r\n        uint winningVoteCount = 0;\r\n        for (uint p = 0; p < proposals.length; p++) {\r\n            if (proposals[p].voteCount > winningVoteCount) {\r\n                winningVoteCount = proposals[p].voteCount;\r\n                winningProposal_ = p;\r\n            }\r\n        }\r\n    }\r\n\r\n    // Calls winningProposal() function to get the index\r\n    // of the winner contained in the proposals array and then\r\n    // returns the name of the winner\r\n    function winnerName() external view returns (string memory winnerName_) {\r\n        winnerName_ = proposals[winningProposal()].name;\r\n    }\r\n\r\n    function checkEligibilityToVote() external view returns (bool) {\r\n        require(\r\n            address(userProfile) != address(0),\r\n            \"UserProfile contract address not set\"\r\n        );\r\n        return userProfile.isEligibleToVote(msg.sender);\r\n    }\r\n\r\n    function getProposals() public view returns (string[] memory) {\r\n        string[] memory proposalNames = new string[](proposals.length);\r\n        for (uint i = 0; i < proposals.length; i++) {\r\n            proposalNames[i] = proposals[i].name;\r\n        }\r\n        return proposalNames;\r\n    }\r\n\r\n    function hasVoted(address user) public view returns (bool) {\r\n        return voters[getVoterByAddress(user)].voted;\r\n    }\r\n\r\n    function initializeVoter(address user) public {\r\n        voters.push(\r\n            Voter({\r\n                userAddress: user,\r\n                weight: 1,\r\n                voted: false,\r\n                delegate: address(0),\r\n                vote: 0\r\n            })\r\n        );\r\n    }\r\n\r\n    function getVoterByAddress(\r\n        address _address\r\n    ) public view returns (uint index) {\r\n        for (uint i = 0; i < voters.length; i++) {\r\n            if (_address == voters[i].userAddress) {\r\n                return i;\r\n            }\r\n            /*if (voters[i].delegate == _address) {\r\n                return voters[i];\r\n            }*/\r\n        }\r\n    }\r\n\r\n    function checkVoterExists(address user) public view returns (bool) {\r\n        for (uint i = 0; i < voters.length; i++) {\r\n            if (user == voters[i].userAddress) {\r\n                return true;\r\n            }\r\n        }\r\n        return false;\r\n    }\r\n\r\n    function getProposalDetails(uint proposalIndex) public view returns (string memory, uint) {\r\n    Proposal memory proposal = proposals[proposalIndex];\r\n    return (proposal.name, proposal.voteCount);\r\n    }\r\n\r\n}\r\n",
  "sourcePath": "D:\\Blockchain-Based-Voting-System\\contracts\\Ballot.sol",
  "compiler": {
    "name": "solc",
    "version": "0.8.19+commit.7dd6d404.Emscripten.clang"
  },
  "schemaVersion": "3.4.16",
  "updatedAt": "2024-04-29T20:50:33.293Z",
  "networkType": "ethereum",
  "devdoc": {
    "kind": "dev",
    "methods": {
      "winningProposal()": {
        "details": "Computes the winning proposal taking all previous votes into account."
      }
    },
    "version": 1
  },
  "userdoc": {
    "kind": "user",
    "methods": {
      "constructor": {
        "notice": "Create a new ballot to choose one of `proposalNames`."
      },
      "delegate(address)": {
        "notice": "Delegate your vote to the voter `to`."
      },
      "vote(uint256)": {
        "notice": "Give your vote (including votes delegated to you) to proposal `proposals[proposal].name`."
      }
    },
    "version": 1
  }
}