{
  "contractName": "Ballot",
  "abi": [
    {
      "inputs": [
        {
          "internalType": "uint256",
          "name": "registrationTime",
          "type": "uint256"
        },
        {
          "internalType": "uint256",
          "name": "votingTime",
          "type": "uint256"
        },
        {
          "internalType": "uint256",
          "name": "numberOfCandidates",
          "type": "uint256"
        },
        {
          "internalType": "address",
          "name": "userProfileContractAddress",
          "type": "address"
        }
      ],
      "stateMutability": "nonpayable",
      "type": "constructor"
    },
    {
      "anonymous": false,
      "inputs": [
        {
          "indexed": false,
          "internalType": "string",
          "name": "message",
          "type": "string"
        }
      ],
      "name": "Log",
      "type": "event"
    },
    {
      "inputs": [],
      "name": "ballotContractAddress",
      "outputs": [
        {
          "internalType": "address",
          "name": "",
          "type": "address"
        }
      ],
      "stateMutability": "view",
      "type": "function"
    },
    {
      "inputs": [],
      "name": "chairpersonDetails",
      "outputs": [
        {
          "internalType": "address",
          "name": "chairpersonAddress",
          "type": "address"
        },
        {
          "internalType": "uint256",
          "name": "registrationTime",
          "type": "uint256"
        },
        {
          "internalType": "uint256",
          "name": "votingTime",
          "type": "uint256"
        },
        {
          "internalType": "uint256",
          "name": "numberOfCandidates",
          "type": "uint256"
        }
      ],
      "stateMutability": "view",
      "type": "function"
    },
    {
      "inputs": [
        {
          "internalType": "uint256",
          "name": "",
          "type": "uint256"
        }
      ],
      "name": "proposals",
      "outputs": [
        {
          "internalType": "string",
          "name": "name",
          "type": "string"
        },
        {
          "internalType": "uint256",
          "name": "voteCount",
          "type": "uint256"
        }
      ],
      "stateMutability": "view",
      "type": "function"
    },
    {
      "inputs": [],
      "name": "proposalsFetched",
      "outputs": [
        {
          "internalType": "bool",
          "name": "",
          "type": "bool"
        }
      ],
      "stateMutability": "view",
      "type": "function"
    },
    {
      "inputs": [],
      "name": "userProfile",
      "outputs": [
        {
          "internalType": "contract UserProfile",
          "name": "",
          "type": "address"
        }
      ],
      "stateMutability": "view",
      "type": "function"
    },
    {
      "inputs": [
        {
          "internalType": "uint256",
          "name": "",
          "type": "uint256"
        }
      ],
      "name": "voters",
      "outputs": [
        {
          "internalType": "address",
          "name": "userAddress",
          "type": "address"
        },
        {
          "internalType": "uint256",
          "name": "weight",
          "type": "uint256"
        },
        {
          "internalType": "bool",
          "name": "voted",
          "type": "bool"
        },
        {
          "internalType": "address",
          "name": "delegate",
          "type": "address"
        },
        {
          "internalType": "uint256",
          "name": "vote",
          "type": "uint256"
        }
      ],
      "stateMutability": "view",
      "type": "function"
    },
    {
      "inputs": [
        {
          "internalType": "address",
          "name": "to",
          "type": "address"
        }
      ],
      "name": "delegate",
      "outputs": [],
      "stateMutability": "nonpayable",
      "type": "function"
    },
    {
      "inputs": [
        {
          "internalType": "uint256",
          "name": "proposal",
          "type": "uint256"
        }
      ],
      "name": "vote",
      "outputs": [],
      "stateMutability": "nonpayable",
      "type": "function"
    },
    {
      "inputs": [],
      "name": "winningProposal",
      "outputs": [
        {
          "internalType": "uint256",
          "name": "winningProposal_",
          "type": "uint256"
        }
      ],
      "stateMutability": "view",
      "type": "function"
    },
    {
      "inputs": [],
      "name": "winnerName",
      "outputs": [
        {
          "internalType": "string",
          "name": "winnerName_",
          "type": "string"
        }
      ],
      "stateMutability": "view",
      "type": "function"
    },
    {
      "inputs": [
        {
          "internalType": "address",
          "name": "userAddress",
          "type": "address"
        }
      ],
      "name": "checkEligibilityToVote",
      "outputs": [
        {
          "internalType": "bool",
          "name": "",
          "type": "bool"
        }
      ],
      "stateMutability": "view",
      "type": "function"
    },
    {
      "inputs": [],
      "name": "getProposals",
      "outputs": [
        {
          "internalType": "string[]",
          "name": "",
          "type": "string[]"
        }
      ],
      "stateMutability": "view",
      "type": "function"
    },
    {
      "inputs": [
        {
          "internalType": "address",
          "name": "user",
          "type": "address"
        }
      ],
      "name": "hasVoted",
      "outputs": [
        {
          "internalType": "bool",
          "name": "",
          "type": "bool"
        }
      ],
      "stateMutability": "view",
      "type": "function"
    },
    {
      "inputs": [
        {
          "internalType": "address",
          "name": "user",
          "type": "address"
        }
      ],
      "name": "initializeVoter",
      "outputs": [],
      "stateMutability": "nonpayable",
      "type": "function"
    },
    {
      "inputs": [],
      "name": "fetchProposals",
      "outputs": [],
      "stateMutability": "nonpayable",
      "type": "function"
    },
    {
      "inputs": [
        {
          "internalType": "address",
          "name": "_address",
          "type": "address"
        }
      ],
      "name": "getVoterByAddress",
      "outputs": [
        {
          "internalType": "uint256",
          "name": "index",
          "type": "uint256"
        }
      ],
      "stateMutability": "view",
      "type": "function"
    },
    {
      "inputs": [
        {
          "internalType": "address",
          "name": "user",
          "type": "address"
        }
      ],
      "name": "checkVoterExists",
      "outputs": [
        {
          "internalType": "bool",
          "name": "",
          "type": "bool"
        }
      ],
      "stateMutability": "view",
      "type": "function"
    },
    {
      "inputs": [],
      "name": "getChairpersonDetails",
      "outputs": [
        {
          "components": [
            {
              "internalType": "address",
              "name": "chairpersonAddress",
              "type": "address"
            },
            {
              "internalType": "uint256",
              "name": "registrationTime",
              "type": "uint256"
            },
            {
              "internalType": "uint256",
              "name": "votingTime",
              "type": "uint256"
            },
            {
              "internalType": "uint256",
              "name": "numberOfCandidates",
              "type": "uint256"
            }
          ],
          "internalType": "struct Ballot.Chairperson",
          "name": "",
          "type": "tuple"
        }
      ],
      "stateMutability": "view",
      "type": "function"
    },
    {
      "inputs": [],
      "name": "votersCount",
      "outputs": [
        {
          "internalType": "uint256",
          "name": "",
          "type": "uint256"
        }
      ],
      "stateMutability": "view",
      "type": "function"
    },
    {
      "inputs": [],
      "name": "proposalsCount",
      "outputs": [
        {
          "internalType": "uint256",
          "name": "",
          "type": "uint256"
        }
      ],
      "stateMutability": "view",
      "type": "function"
    },
    {
      "inputs": [
        {
          "internalType": "uint256",
          "name": "i",
          "type": "uint256"
        }
      ],
      "name": "getVoter",
      "outputs": [
        {
          "components": [
            {
              "internalType": "address",
              "name": "userAddress",
              "type": "address"
            },
            {
              "internalType": "uint256",
              "name": "weight",
              "type": "uint256"
            },
            {
              "internalType": "bool",
              "name": "voted",
              "type": "bool"
            },
            {
              "internalType": "address",
              "name": "delegate",
              "type": "address"
            },
            {
              "internalType": "uint256",
              "name": "vote",
              "type": "uint256"
            }
          ],
          "internalType": "struct Ballot.Voter",
          "name": "",
          "type": "tuple"
        }
      ],
      "stateMutability": "view",
      "type": "function"
    },
    {
      "inputs": [
        {
          "internalType": "uint256",
          "name": "i",
          "type": "uint256"
        }
      ],
      "name": "getProposal",
      "outputs": [
        {
          "components": [
            {
              "internalType": "string",
              "name": "name",
              "type": "string"
            },
            {
              "internalType": "uint256",
              "name": "voteCount",
              "type": "uint256"
            }
          ],
          "internalType": "struct Ballot.Proposal",
          "name": "",
          "type": "tuple"
        }
      ],
      "stateMutability": "view",
      "type": "function"
    },
    {
      "inputs": [],
      "name": "getVotingTime",
      "outputs": [
        {
          "internalType": "uint256",
          "name": "",
          "type": "uint256"
        }
      ],
      "stateMutability": "view",
      "type": "function"
    },
    {
      "inputs": [],
      "name": "getRegistrationTime",
      "outputs": [
        {
          "internalType": "uint256",
          "name": "",
          "type": "uint256"
        }
      ],
      "stateMutability": "view",
      "type": "function"
    },
    {
      "inputs": [],
      "name": "getNumberOfCandidates",
      "outputs": [
        {
          "internalType": "uint256",
          "name": "",
          "type": "uint256"
        }
      ],
      "stateMutability": "view",
      "type": "function"
    },
    {
      "inputs": [],
      "name": "getContractAddress",
      "outputs": [
        {
          "internalType": "address",
          "name": "",
          "type": "address"
        }
      ],
      "stateMutability": "view",
      "type": "function"
    },
    {
      "inputs": [],
      "name": "isProposalFetched",
      "outputs": [
        {
          "internalType": "bool",
          "name": "",
          "type": "bool"
        }
      ],
      "stateMutability": "view",
      "type": "function"
    }
  ],
  "bytecode": "0x60806040523480156200001157600080fd5b5060405162002cad38038062002cad83398181016040528101906200003791906200023f565b60405180608001604052803373ffffffffffffffffffffffffffffffffffffffff168152602001858152602001848152602001838152506000808201518160000160006101000a81548173ffffffffffffffffffffffffffffffffffffffff021916908373ffffffffffffffffffffffffffffffffffffffff16021790555060208201518160010155604082015181600201556060820151816003015590505030600660016101000a81548173ffffffffffffffffffffffffffffffffffffffff021916908373ffffffffffffffffffffffffffffffffffffffff16021790555080600760006101000a81548173ffffffffffffffffffffffffffffffffffffffff021916908373ffffffffffffffffffffffffffffffffffffffff1602179055507fcf34ef537ac33ee1ac626ca1587a0a7e8e51561e5514f8cb36afa1c5102b3bab604051620001889062000312565b60405180910390a15050505062000334565b600080fd5b6000819050919050565b620001b4816200019f565b8114620001c057600080fd5b50565b600081519050620001d481620001a9565b92915050565b600073ffffffffffffffffffffffffffffffffffffffff82169050919050565b60006200020782620001da565b9050919050565b6200021981620001fa565b81146200022557600080fd5b50565b60008151905062000239816200020e565b92915050565b600080600080608085870312156200025c576200025b6200019a565b5b60006200026c87828801620001c3565b94505060206200027f87828801620001c3565b93505060406200029287828801620001c3565b9250506060620002a58782880162000228565b91505092959194509250565b600082825260208201905092915050565b7f5374617274696e6720746f206465706c6f7920636f6e74726163740000000000600082015250565b6000620002fa601b83620002b1565b91506200030782620002c2565b602082019050919050565b600060208201905081810360008301526200032d81620002eb565b9050919050565b61296980620003446000396000f3fe608060405234801561001057600080fd5b50600436106101a95760003560e01c806362564c48116100f9578063c1138ad811610097578063c9174a3a11610071578063c9174a3a146104b6578063d07bff0c146104d4578063da58c7d914610504578063e2ba53f014610538576101a9565b8063c1138ad814610449578063c32c1a4b14610465578063c7f758a814610486576101a9565b80637a84d13e116100d35780637a84d13e146103e55780637e320d2f1461040357806398c079381461040d578063b131b33b1461042b576101a9565b806362564c481461037957806366a50353146103975780637415ca4b146103c7576101a9565b80632962863c1161016657806336b898721161014057806336b89872146102df5780634bdd75851461030f5780635c19a95c1461033f578063609ff1bd1461035b576101a9565b80632962863c146102855780632a5de350146102a357806332a2c5d0146102c1576101a9565b80630121b93f146101ae578063013cf08b146101ca57806309eef43e146101fb5780630a9f46ad1461022b578063150e7b811461024957806315c2f63614610267575b600080fd5b6101c860048036038101906101c39190611902565b610556565b005b6101e460048036038101906101df9190611902565b6106c2565b6040516101f29291906119ce565b60405180910390f35b61021560048036038101906102109190611a5c565b61077e565b6040516102229190611aa4565b60405180910390f35b6102336107c7565b6040516102409190611abf565b60405180910390f35b6102516107d4565b60405161025e9190611aa4565b60405180910390f35b61026f6107eb565b60405161027c9190611abf565b60405180910390f35b61028d6107f7565b60405161029a9190611abf565b60405180910390f35b6102ab610803565b6040516102b89190611b39565b60405180910390f35b6102c9610829565b6040516102d69190611b63565b60405180910390f35b6102f960048036038101906102f49190611a5c565b610853565b6040516103069190611aa4565b60405180910390f35b61032960048036038101906103249190611a5c565b610988565b6040516103369190611abf565b60405180910390f35b61035960048036038101906103549190611a5c565b610a38565b005b610363610e81565b6040516103709190611abf565b60405180910390f35b610381610f09565b60405161038e9190611c8a565b60405180910390f35b6103b160048036038101906103ac9190611a5c565b611059565b6040516103be9190611aa4565b60405180910390f35b6103cf61110e565b6040516103dc9190611d1f565b60405180910390f35b6103ed61119c565b6040516103fa9190611abf565b60405180910390f35b61040b6111a8565b005b6104156112f6565b6040516104229190611abf565b60405180910390f35b610433611303565b6040516104409190611b63565b60405180910390f35b610463600480360381019061045e9190611a5c565b611329565b005b61046d611474565b60405161047d9493929190611d3a565b60405180910390f35b6104a0600480360381019061049b9190611902565b6114b2565b6040516104ad9190611dbc565b60405180910390f35b6104be61158a565b6040516104cb9190611aa4565b60405180910390f35b6104ee60048036038101906104e99190611902565b61159d565b6040516104fb9190611e55565b60405180910390f35b61051e60048036038101906105199190611902565b6116b4565b60405161052f959493929190611e70565b60405180910390f35b610540611747565b60405161054d9190611ec3565b60405180910390f35b7fcf34ef537ac33ee1ac626ca1587a0a7e8e51561e5514f8cb36afa1c5102b3bab60405161058390611f31565b60405180910390a1600061059633610988565b90506000600482815481106105ae576105ad611f51565b5b906000526020600020906004020190506000816001015403610605576040517f08c379a00000000000000000000000000000000000000000000000000000000081526004016105fc90611fcc565b60405180910390fd5b8060020160009054906101000a900460ff1615610657576040517f08c379a000000000000000000000000000000000000000000000000000000000815260040161064e90612038565b60405180910390fd5b60018160020160006101000a81548160ff02191690831515021790555082816003018190555080600101546005848154811061069657610695611f51565b5b906000526020600020906002020160010160008282546106b69190612087565b92505081905550505050565b600581815481106106d257600080fd5b90600052602060002090600202016000915090508060000180546106f5906120ea565b80601f0160208091040260200160405190810160405280929190818152602001828054610721906120ea565b801561076e5780601f106107435761010080835404028352916020019161076e565b820191906000526020600020905b81548152906001019060200180831161075157829003601f168201915b5050505050908060010154905082565b60008061078a83610988565b9050600481815481106107a05761079f611f51565b5b906000526020600020906004020160020160009054906101000a900460ff16915050919050565b6000600580549050905090565b6000600660009054906101000a900460ff16905090565b60008060020154905090565b60008060010154905090565b600760009054906101000a900473ffffffffffffffffffffffffffffffffffffffff1681565b6000600660019054906101000a900473ffffffffffffffffffffffffffffffffffffffff16905090565b60008073ffffffffffffffffffffffffffffffffffffffff16600760009054906101000a900473ffffffffffffffffffffffffffffffffffffffff1673ffffffffffffffffffffffffffffffffffffffff16036108e5576040517f08c379a00000000000000000000000000000000000000000000000000000000081526004016108dc9061218d565b60405180910390fd5b600760009054906101000a900473ffffffffffffffffffffffffffffffffffffffff1673ffffffffffffffffffffffffffffffffffffffff1663133f50f5836040518263ffffffff1660e01b81526004016109409190611b63565b602060405180830381865afa15801561095d573d6000803e3d6000fd5b505050506040513d601f19601f8201168201806040525081019061098191906121d9565b9050919050565b600080600090505b600480549050811015610a3157600481815481106109b1576109b0611f51565b5b906000526020600020906004020160000160009054906101000a900473ffffffffffffffffffffffffffffffffffffffff1673ffffffffffffffffffffffffffffffffffffffff168373ffffffffffffffffffffffffffffffffffffffff1603610a1e5780915050610a33565b8080610a2990612206565b915050610990565b505b919050565b7fcf34ef537ac33ee1ac626ca1587a0a7e8e51561e5514f8cb36afa1c5102b3bab604051610a659061229a565b60405180910390a16000610a7833610988565b9050600060048281548110610a9057610a8f611f51565b5b906000526020600020906004020190506000816001015403610ae7576040517f08c379a0000000000000000000000000000000000000000000000000000000008152600401610ade90612306565b60405180910390fd5b8060020160009054906101000a900460ff1615610b39576040517f08c379a0000000000000000000000000000000000000000000000000000000008152600401610b3090612372565b60405180910390fd5b3373ffffffffffffffffffffffffffffffffffffffff168373ffffffffffffffffffffffffffffffffffffffff1603610ba7576040517f08c379a0000000000000000000000000000000000000000000000000000000008152600401610b9e906123de565b60405180910390fd5b5b600073ffffffffffffffffffffffffffffffffffffffff166004610bcb85610988565b81548110610bdc57610bdb611f51565b5b906000526020600020906004020160020160019054906101000a900473ffffffffffffffffffffffffffffffffffffffff1673ffffffffffffffffffffffffffffffffffffffff1614610cec576004610c3484610988565b81548110610c4557610c44611f51565b5b906000526020600020906004020160020160019054906101000a900473ffffffffffffffffffffffffffffffffffffffff1692503373ffffffffffffffffffffffffffffffffffffffff168373ffffffffffffffffffffffffffffffffffffffff1603610ce7576040517f08c379a0000000000000000000000000000000000000000000000000000000008152600401610cde9061244a565b60405180910390fd5b610ba8565b6000610cf784611059565b905080610d0857610d0784611329565b5b60006004610d1586610988565b81548110610d2657610d25611f51565b5b90600052602060002090600402019050600181600101541015610d4857600080fd5b60018360020160006101000a81548160ff021916908315150217905550848360020160016101000a81548173ffffffffffffffffffffffffffffffffffffffff021916908373ffffffffffffffffffffffffffffffffffffffff1602179055506004610db386610988565b81548110610dc457610dc3611f51565b5b906000526020600020906004020160020160009054906101000a900460ff1615610e5a57826001015460056004610dfa88610988565b81548110610e0b57610e0a611f51565b5b90600052602060002090600402016003015481548110610e2e57610e2d611f51565b5b90600052602060002090600202016001016000828254610e4e9190612087565b92505081905550610e7a565b8260010154816001016000828254610e729190612087565b925050819055505b5050505050565b6000806000905060005b600580549050811015610f04578160058281548110610ead57610eac611f51565b5b9060005260206000209060020201600101541115610ef15760058181548110610ed957610ed8611f51565b5b90600052602060002090600202016001015491508092505b8080610efc90612206565b915050610e8b565b505090565b6060600060058054905067ffffffffffffffff811115610f2c57610f2b61246a565b5b604051908082528060200260200182016040528015610f5f57816020015b6060815260200190600190039081610f4a5790505b50905060005b6005805490508110156110515760058181548110610f8657610f85611f51565b5b90600052602060002090600202016000018054610fa2906120ea565b80601f0160208091040260200160405190810160405280929190818152602001828054610fce906120ea565b801561101b5780601f10610ff05761010080835404028352916020019161101b565b820191906000526020600020905b815481529060010190602001808311610ffe57829003601f168201915b505050505082828151811061103357611032611f51565b5b6020026020010181905250808061104990612206565b915050610f65565b508091505090565b600080600090505b600480549050811015611103576004818154811061108257611081611f51565b5b906000526020600020906004020160000160009054906101000a900473ffffffffffffffffffffffffffffffffffffffff1673ffffffffffffffffffffffffffffffffffffffff168373ffffffffffffffffffffffffffffffffffffffff16036110f0576001915050611109565b80806110fb90612206565b915050611061565b50600090505b919050565b611116611803565b60006040518060800160405290816000820160009054906101000a900473ffffffffffffffffffffffffffffffffffffffff1673ffffffffffffffffffffffffffffffffffffffff1673ffffffffffffffffffffffffffffffffffffffff1681526020016001820154815260200160028201548152602001600382015481525050905090565b60008060030154905090565b6000600580549050036112f4576000600760009054906101000a900473ffffffffffffffffffffffffffffffffffffffff1673ffffffffffffffffffffffffffffffffffffffff166362564c486040518163ffffffff1660e01b8152600401600060405180830381865afa158015611224573d6000803e3d6000fd5b505050506040513d6000823e3d601f19601f8201168201806040525081019061124d9190612676565b905060005b81518110156112f1576000604051806040016040528084848151811061127b5761127a611f51565b5b6020026020010151815260200160008152509050600581908060018154018082558091505060019003906000526020600020906002020160009091909190915060008201518160000190816112d09190612861565b506020820151816001015550505080806112e990612206565b915050611252565b50505b565b6000600480549050905090565b600660019054906101000a900473ffffffffffffffffffffffffffffffffffffffff1681565b60046040518060a001604052808373ffffffffffffffffffffffffffffffffffffffff16815260200160018152602001600015158152602001600073ffffffffffffffffffffffffffffffffffffffff1681526020016000815250908060018154018082558091505060019003906000526020600020906004020160009091909190915060008201518160000160006101000a81548173ffffffffffffffffffffffffffffffffffffffff021916908373ffffffffffffffffffffffffffffffffffffffff1602179055506020820151816001015560408201518160020160006101000a81548160ff02191690831515021790555060608201518160020160016101000a81548173ffffffffffffffffffffffffffffffffffffffff021916908373ffffffffffffffffffffffffffffffffffffffff16021790555060808201518160030155505050565b60008060000160009054906101000a900473ffffffffffffffffffffffffffffffffffffffff16908060010154908060020154908060030154905084565b6114ba611841565b600582815481106114ce576114cd611f51565b5b90600052602060002090600202016040518060400160405290816000820180546114f7906120ea565b80601f0160208091040260200160405190810160405280929190818152602001828054611523906120ea565b80156115705780601f1061154557610100808354040283529160200191611570565b820191906000526020600020905b81548152906001019060200180831161155357829003601f168201915b505050505081526020016001820154815250509050919050565b600660009054906101000a900460ff1681565b6115a561185b565b600482815481106115b9576115b8611f51565b5b90600052602060002090600402016040518060a00160405290816000820160009054906101000a900473ffffffffffffffffffffffffffffffffffffffff1673ffffffffffffffffffffffffffffffffffffffff1673ffffffffffffffffffffffffffffffffffffffff168152602001600182015481526020016002820160009054906101000a900460ff161515151581526020016002820160019054906101000a900473ffffffffffffffffffffffffffffffffffffffff1673ffffffffffffffffffffffffffffffffffffffff1673ffffffffffffffffffffffffffffffffffffffff1681526020016003820154815250509050919050565b600481815481106116c457600080fd5b90600052602060002090600402016000915090508060000160009054906101000a900473ffffffffffffffffffffffffffffffffffffffff16908060010154908060020160009054906101000a900460ff16908060020160019054906101000a900473ffffffffffffffffffffffffffffffffffffffff16908060030154905085565b60606005611753610e81565b8154811061176457611763611f51565b5b90600052602060002090600202016000018054611780906120ea565b80601f01602080910402602001604051908101604052809291908181526020018280546117ac906120ea565b80156117f95780601f106117ce576101008083540402835291602001916117f9565b820191906000526020600020905b8154815290600101906020018083116117dc57829003601f168201915b5050505050905090565b6040518060800160405280600073ffffffffffffffffffffffffffffffffffffffff1681526020016000815260200160008152602001600081525090565b604051806040016040528060608152602001600081525090565b6040518060a00160405280600073ffffffffffffffffffffffffffffffffffffffff16815260200160008152602001600015158152602001600073ffffffffffffffffffffffffffffffffffffffff168152602001600081525090565b6000604051905090565b600080fd5b600080fd5b6000819050919050565b6118df816118cc565b81146118ea57600080fd5b50565b6000813590506118fc816118d6565b92915050565b600060208284031215611918576119176118c2565b5b6000611926848285016118ed565b91505092915050565b600081519050919050565b600082825260208201905092915050565b60005b8381101561196957808201518184015260208101905061194e565b60008484015250505050565b6000601f19601f8301169050919050565b60006119918261192f565b61199b818561193a565b93506119ab81856020860161194b565b6119b481611975565b840191505092915050565b6119c8816118cc565b82525050565b600060408201905081810360008301526119e88185611986565b90506119f760208301846119bf565b9392505050565b600073ffffffffffffffffffffffffffffffffffffffff82169050919050565b6000611a29826119fe565b9050919050565b611a3981611a1e565b8114611a4457600080fd5b50565b600081359050611a5681611a30565b92915050565b600060208284031215611a7257611a716118c2565b5b6000611a8084828501611a47565b91505092915050565b60008115159050919050565b611a9e81611a89565b82525050565b6000602082019050611ab96000830184611a95565b92915050565b6000602082019050611ad460008301846119bf565b92915050565b6000819050919050565b6000611aff611afa611af5846119fe565b611ada565b6119fe565b9050919050565b6000611b1182611ae4565b9050919050565b6000611b2382611b06565b9050919050565b611b3381611b18565b82525050565b6000602082019050611b4e6000830184611b2a565b92915050565b611b5d81611a1e565b82525050565b6000602082019050611b786000830184611b54565b92915050565b600081519050919050565b600082825260208201905092915050565b6000819050602082019050919050565b600082825260208201905092915050565b6000611bc68261192f565b611bd08185611baa565b9350611be081856020860161194b565b611be981611975565b840191505092915050565b6000611c008383611bbb565b905092915050565b6000602082019050919050565b6000611c2082611b7e565b611c2a8185611b89565b935083602082028501611c3c85611b9a565b8060005b85811015611c785784840389528151611c598582611bf4565b9450611c6483611c08565b925060208a01995050600181019050611c40565b50829750879550505050505092915050565b60006020820190508181036000830152611ca48184611c15565b905092915050565b611cb581611a1e565b82525050565b611cc4816118cc565b82525050565b608082016000820151611ce06000850182611cac565b506020820151611cf36020850182611cbb565b506040820151611d066040850182611cbb565b506060820151611d196060850182611cbb565b50505050565b6000608082019050611d346000830184611cca565b92915050565b6000608082019050611d4f6000830187611b54565b611d5c60208301866119bf565b611d6960408301856119bf565b611d7660608301846119bf565b95945050505050565b60006040830160008301518482036000860152611d9c8282611bbb565b9150506020830151611db16020860182611cbb565b508091505092915050565b60006020820190508181036000830152611dd68184611d7f565b905092915050565b611de781611a89565b82525050565b60a082016000820151611e036000850182611cac565b506020820151611e166020850182611cbb565b506040820151611e296040850182611dde565b506060820151611e3c6060850182611cac565b506080820151611e4f6080850182611cbb565b50505050565b600060a082019050611e6a6000830184611ded565b92915050565b600060a082019050611e856000830188611b54565b611e9260208301876119bf565b611e9f6040830186611a95565b611eac6060830185611b54565b611eb960808301846119bf565b9695505050505050565b60006020820190508181036000830152611edd8184611986565b905092915050565b7f547279696e6720746f20766f7465000000000000000000000000000000000000600082015250565b6000611f1b600e8361193a565b9150611f2682611ee5565b602082019050919050565b60006020820190508181036000830152611f4a81611f0e565b9050919050565b7f4e487b7100000000000000000000000000000000000000000000000000000000600052603260045260246000fd5b7f486173206e6f20726967687420746f20766f7465000000000000000000000000600082015250565b6000611fb660148361193a565b9150611fc182611f80565b602082019050919050565b60006020820190508181036000830152611fe581611fa9565b9050919050565b7f416c726561647920766f7465642e000000000000000000000000000000000000600082015250565b6000612022600e8361193a565b915061202d82611fec565b602082019050919050565b6000602082019050818103600083015261205181612015565b9050919050565b7f4e487b7100000000000000000000000000000000000000000000000000000000600052601160045260246000fd5b6000612092826118cc565b915061209d836118cc565b92508282019050808211156120b5576120b4612058565b5b92915050565b7f4e487b7100000000000000000000000000000000000000000000000000000000600052602260045260246000fd5b6000600282049050600182168061210257607f821691505b602082108103612115576121146120bb565b5b50919050565b7f5573657250726f66696c6520636f6e74726163742061646472657373206e6f7460008201527f2073657400000000000000000000000000000000000000000000000000000000602082015250565b600061217760248361193a565b91506121828261211b565b604082019050919050565b600060208201905081810360008301526121a68161216a565b9050919050565b6121b681611a89565b81146121c157600080fd5b50565b6000815190506121d3816121ad565b92915050565b6000602082840312156121ef576121ee6118c2565b5b60006121fd848285016121c4565b91505092915050565b6000612211826118cc565b91507fffffffffffffffffffffffffffffffffffffffffffffffffffffffffffffffff820361224357612242612058565b5b600182019050919050565b7f547279696e6720746f2064656c65676174650000000000000000000000000000600082015250565b600061228460128361193a565b915061228f8261224e565b602082019050919050565b600060208201905081810360008301526122b381612277565b9050919050565b7f596f752068617665206e6f20726967687420746f20766f746500000000000000600082015250565b60006122f060198361193a565b91506122fb826122ba565b602082019050919050565b6000602082019050818103600083015261231f816122e3565b9050919050565b7f596f7520616c726561647920766f7465642e0000000000000000000000000000600082015250565b600061235c60128361193a565b915061236782612326565b602082019050919050565b6000602082019050818103600083015261238b8161234f565b9050919050565b7f53656c662d64656c65676174696f6e20697320646973616c6c6f7765642e0000600082015250565b60006123c8601e8361193a565b91506123d382612392565b602082019050919050565b600060208201905081810360008301526123f7816123bb565b9050919050565b7f466f756e64206c6f6f7020696e2064656c65676174696f6e2e00000000000000600082015250565b600061243460198361193a565b915061243f826123fe565b602082019050919050565b6000602082019050818103600083015261246381612427565b9050919050565b7f4e487b7100000000000000000000000000000000000000000000000000000000600052604160045260246000fd5b600080fd5b6124a782611975565b810181811067ffffffffffffffff821117156124c6576124c561246a565b5b80604052505050565b60006124d96118b8565b90506124e5828261249e565b919050565b600067ffffffffffffffff8211156125055761250461246a565b5b602082029050602081019050919050565b600080fd5b600080fd5b600067ffffffffffffffff82111561253b5761253a61246a565b5b61254482611975565b9050602081019050919050565b600061256461255f84612520565b6124cf565b9050828152602081018484840111156125805761257f61251b565b5b61258b84828561194b565b509392505050565b600082601f8301126125a8576125a7612499565b5b81516125b8848260208601612551565b91505092915050565b60006125d46125cf846124ea565b6124cf565b905080838252602082019050602084028301858111156125f7576125f6612516565b5b835b8181101561263e57805167ffffffffffffffff81111561261c5761261b612499565b5b8086016126298982612593565b855260208501945050506020810190506125f9565b5050509392505050565b600082601f83011261265d5761265c612499565b5b815161266d8482602086016125c1565b91505092915050565b60006020828403121561268c5761268b6118c2565b5b600082015167ffffffffffffffff8111156126aa576126a96118c7565b5b6126b684828501612648565b91505092915050565b60008190508160005260206000209050919050565b60006020601f8301049050919050565b600082821b905092915050565b6000600883026127217fffffffffffffffffffffffffffffffffffffffffffffffffffffffffffffffff826126e4565b61272b86836126e4565b95508019841693508086168417925050509392505050565b600061275e612759612754846118cc565b611ada565b6118cc565b9050919050565b6000819050919050565b61277883612743565b61278c61278482612765565b8484546126f1565b825550505050565b600090565b6127a1612794565b6127ac81848461276f565b505050565b5b818110156127d0576127c5600082612799565b6001810190506127b2565b5050565b601f821115612815576127e6816126bf565b6127ef846126d4565b810160208510156127fe578190505b61281261280a856126d4565b8301826127b1565b50505b505050565b600082821c905092915050565b60006128386000198460080261281a565b1980831691505092915050565b60006128518383612827565b9150826002028217905092915050565b61286a8261192f565b67ffffffffffffffff8111156128835761288261246a565b5b61288d82546120ea565b6128988282856127d4565b600060209050601f8311600181146128cb57600084156128b9578287015190505b6128c38582612845565b86555061292b565b601f1984166128d9866126bf565b60005b82811015612901578489015182556001820191506020850194506020810190506128dc565b8683101561291e578489015161291a601f891682612827565b8355505b6001600288020188555050505b50505050505056fea2646970667358221220a323fd65d5777840a30fee1c33df0f86c379aa96b683b0673c5088f247c7c70a64736f6c63430008130033",
  "immutableReferences": {},
  "source": "pragma solidity >=0.7.0 <0.9.0;\r\nimport \"./UserProfile.sol\";\r\n\r\ncontract Ballot {\r\n    //Defining an event log\r\n    event Log(string message);\r\n\r\n    // This declares a new complex type which will\r\n    // be used for variables later.\r\n    // It will represent a single voter.\r\n    struct Voter {\r\n        address userAddress;\r\n        uint weight; // weight is accumulated by delegation\r\n        bool voted; // if true, that person already voted\r\n        address delegate; // person delegated to\r\n        uint vote; // index of the voted proposal\r\n    }\r\n\r\n    struct Chairperson {\r\n        address chairpersonAddress;\r\n        uint registrationTime;\r\n        uint votingTime;\r\n        uint numberOfCandidates;\r\n    }\r\n\r\n    // This is a type for a single proposal.\r\n    struct Proposal {\r\n        string name; // short name (up to 32 bytes)\r\n        uint voteCount; // number of accumulated votes\r\n    }\r\n\r\n    Chairperson public chairpersonDetails;\r\n\r\n    // This declares a state variable that\r\n    // stores a `Voter` struct for each possible address.\r\n    Voter[] public voters;\r\n\r\n    // A dynamically-sized array of `Proposal` structs.\r\n    Proposal[] public proposals;\r\n\r\n    bool public proposalsFetched;\r\n\r\n    address public ballotContractAddress;\r\n\r\n    /// Create a new ballot to choose one of `proposalNames`.\r\n    constructor(\r\n        uint registrationTime,\r\n        uint votingTime,\r\n        uint numberOfCandidates,\r\n        address userProfileContractAddress\r\n    ) {\r\n        chairpersonDetails = Chairperson({\r\n            chairpersonAddress: msg.sender,\r\n            registrationTime: registrationTime,\r\n            votingTime: votingTime,\r\n            numberOfCandidates: numberOfCandidates\r\n        });\r\n\r\n        ballotContractAddress = address(this);\r\n        /*chairperson = msg.sender;\r\n        voters.push(\r\n            Voter({\r\n                userAddress: msg.sender,\r\n                weight: 1,\r\n                voted: false,\r\n                delegate: address(0),\r\n                vote: 0\r\n            })\r\n        );*/\r\n\r\n        // Set the address of the UserProfile contract\r\n        userProfile = UserProfile(userProfileContractAddress);\r\n\r\n        // For each of the provided proposal names,\r\n        // create a new proposal object and add it\r\n        // to the end of the array.\r\n        /*for (uint i = 0; i < proposalNames.length; i++) {\r\n            // `Proposal({...})` creates a temporary\r\n            // Proposal object and `proposals.push(...)`\r\n            // appends it to the end of `proposals`.\r\n            proposals.push(\r\n                Proposal({name: string(proposalNames[i]), voteCount: 0})\r\n            );\r\n        }*/\r\n        emit Log(\"Starting to deploy contract\");\r\n    }\r\n\r\n    UserProfile public userProfile;\r\n\r\n    // Give `voter` the right to vote on this ballot.\r\n    // May only be called by `chairperson`.\r\n    /*function giveRightToVote(address voter) external {\r\n        require(\r\n            msg.sender == chairperson,\r\n            \"Only chairperson can give right to vote.\"\r\n        );\r\n        require(!voters[voter].voted, \"The voter already voted.\");\r\n        require(voters[voter].weight == 0);\r\n        voters.push(\r\n            Voter({weight: 1, voted: false, delegate: address(0), vote: 0})\r\n        );\r\n    }*/\r\n\r\n    /// Delegate your vote to the voter `to`.\r\n    function delegate(address to) public {\r\n        emit Log(\"Trying to delegate\");\r\n        uint voterIndex = getVoterByAddress(msg.sender);\r\n        Voter storage sender = voters[voterIndex];\r\n        require(sender.weight != 0, \"You have no right to vote\");\r\n        require(!sender.voted, \"You already voted.\");\r\n\r\n        require(to != msg.sender, \"Self-delegation is disallowed.\");\r\n\r\n        // Forward the delegation as long as\r\n        // `to` also delegated.\r\n        // In general, such loops are very dangerous,\r\n        // because if they run too long, they might\r\n        // need more gas than is available in a block.\r\n        // In this case, the delegation will not be executed,\r\n        // but in other situations, such loops might\r\n        // cause a contract to get \"stuck\" completely.\r\n        while (voters[getVoterByAddress(to)].delegate != address(0)) {\r\n            to = voters[getVoterByAddress(to)].delegate;\r\n\r\n            // We found a loop in the delegation, not allowed.\r\n            require(to != msg.sender, \"Found loop in delegation.\");\r\n        }\r\n        bool voterExists = checkVoterExists(to);\r\n        if (!voterExists) {\r\n            initializeVoter(to);\r\n        }\r\n        Voter storage delegate_ = voters[getVoterByAddress(to)];\r\n\r\n        // Voters cannot delegate to accounts that cannot vote.\r\n        require(delegate_.weight >= 1);\r\n\r\n        // Since `sender` is a reference, this\r\n        // modifies `voters[msg.sender]`.\r\n        sender.voted = true;\r\n        sender.delegate = to;\r\n\r\n        if (voters[getVoterByAddress(to)].voted) {\r\n            // If the delegate already voted,\r\n            // directly add to the number of votes\r\n            proposals[voters[getVoterByAddress(to)].vote].voteCount += sender\r\n                .weight;\r\n        } else {\r\n            // If the delegate did not vote yet,\r\n            // add to her weight.\r\n            delegate_.weight += sender.weight;\r\n        }\r\n    }\r\n\r\n    /// Give your vote (including votes delegated to you)\r\n    /// to proposal `proposals[proposal].name`.\r\n    function vote(uint proposal) public {\r\n        emit Log(\"Trying to vote\");\r\n        uint voterIndex = getVoterByAddress(msg.sender);\r\n        Voter storage sender = voters[voterIndex];\r\n        require(sender.weight != 0, \"Has no right to vote\");\r\n        require(!sender.voted, \"Already voted.\");\r\n        sender.voted = bool(true);\r\n        sender.vote = uint(proposal);\r\n\r\n        // If `proposal` is out of the range of the array,\r\n        // this will throw automatically and revert all\r\n        // changes.\r\n        proposals[proposal].voteCount += sender.weight;\r\n    }\r\n\r\n    /// @dev Computes the winning proposal taking all\r\n    /// previous votes into account.\r\n    function winningProposal() public view returns (uint winningProposal_) {\r\n        uint winningVoteCount = 0;\r\n        for (uint p = 0; p < proposals.length; p++) {\r\n            if (proposals[p].voteCount > winningVoteCount) {\r\n                winningVoteCount = proposals[p].voteCount;\r\n                winningProposal_ = p;\r\n            }\r\n        }\r\n    }\r\n\r\n    // Calls winningProposal() function to get the index\r\n    // of the winner contained in the proposals array and then\r\n    // returns the name of the winner\r\n    function winnerName() external view returns (string memory winnerName_) {\r\n        winnerName_ = proposals[winningProposal()].name;\r\n    }\r\n\r\n    function checkEligibilityToVote(\r\n        address userAddress\r\n    ) public view returns (bool) {\r\n        require(\r\n            address(userProfile) != address(0),\r\n            \"UserProfile contract address not set\"\r\n        );\r\n        return userProfile.checkUserExists(userAddress);\r\n    }\r\n\r\n    function getProposals() public view returns (string[] memory) {\r\n        string[] memory proposalNames = new string[](proposals.length);\r\n        for (uint i = 0; i < proposals.length; i++) {\r\n            proposalNames[i] = proposals[i].name;\r\n        }\r\n        return proposalNames;\r\n    }\r\n\r\n    function hasVoted(address user) public view returns (bool) {\r\n        uint voterIndex = getVoterByAddress(user);\r\n        return voters[voterIndex].voted;\r\n    }\r\n\r\n    function initializeVoter(address user) public {\r\n        voters.push(\r\n            Voter({\r\n                userAddress: user,\r\n                weight: 1,\r\n                voted: false,\r\n                delegate: address(0),\r\n                vote: 0\r\n            })\r\n        );\r\n    }\r\n\r\n    function fetchProposals() public {\r\n    // Check if proposals have already been fetched\r\n    if (proposals.length == 0) {\r\n        string[] memory proposalNames = userProfile.getProposals();\r\n        for (uint i = 0; i < proposalNames.length; i++) {\r\n            Proposal memory newProposal = Proposal({\r\n                name: proposalNames[i],\r\n                voteCount: 0\r\n            });\r\n            proposals.push(newProposal);\r\n        }\r\n    }\r\n}\r\n\r\n    function getVoterByAddress(\r\n        address _address\r\n    ) public view returns (uint index) {\r\n        for (uint i = 0; i < voters.length; i++) {\r\n            if (_address == voters[i].userAddress) {\r\n                return i;\r\n            }\r\n            /*if (voters[i].delegate == _address) {\r\n                return voters[i];\r\n            }*/\r\n        }\r\n    }\r\n\r\n    function checkVoterExists(address user) public view returns (bool) {\r\n        for (uint i = 0; i < voters.length; i++) {\r\n            if (user == voters[i].userAddress) {\r\n                return true;\r\n            }\r\n        }\r\n        return false;\r\n    }\r\n\r\n    function getChairpersonDetails() public view returns (Chairperson memory) {\r\n        return chairpersonDetails;\r\n    }\r\n\r\n    function votersCount() public view returns (uint) {\r\n        return voters.length;\r\n    }\r\n\r\n    function proposalsCount() public view returns (uint) {\r\n        return proposals.length;\r\n    }\r\n\r\n    function getVoter(uint i) public view returns (Voter memory) {\r\n        return voters[i];\r\n    }\r\n\r\n    function getProposal(uint i) public view returns (Proposal memory) {\r\n        return proposals[i];\r\n    }\r\n\r\n    function getVotingTime() public view returns (uint) {\r\n        return chairpersonDetails.votingTime;\r\n    }\r\n\r\n    function getRegistrationTime() public view returns (uint) {\r\n        return chairpersonDetails.registrationTime;\r\n    }\r\n\r\n    function getNumberOfCandidates() public view returns (uint) {\r\n        return chairpersonDetails.numberOfCandidates;\r\n    }\r\n\r\n    function getContractAddress() public view returns (address) {\r\n        return ballotContractAddress;\r\n    }\r\n\r\n    function isProposalFetched() public view returns (bool) {\r\n        return proposalsFetched;\r\n    }\r\n}\r\n",
  "sourcePath": "D:\\Github\\Blockchain-Based-Voting-System\\contracts\\Ballot.sol",
  "compiler": {
    "name": "solc",
    "version": "0.8.19+commit.7dd6d404.Emscripten.clang"
  },
  "schemaVersion": "3.4.16",
  "updatedAt": "2024-05-05T09:11:49.399Z",
  "devdoc": {
    "kind": "dev",
    "methods": {
      "winningProposal()": {
        "details": "Computes the winning proposal taking all previous votes into account."
      }
    },
    "version": 1
  },
  "userdoc": {
    "kind": "user",
    "methods": {
      "constructor": {
        "notice": "Create a new ballot to choose one of `proposalNames`."
      },
      "delegate(address)": {
        "notice": "Delegate your vote to the voter `to`."
      },
      "vote(uint256)": {
        "notice": "Give your vote (including votes delegated to you) to proposal `proposals[proposal].name`."
      }
    },
    "version": 1
  }
}