{
  "contractName": "UserProfile",
  "abi": [
    {
      "anonymous": false,
      "inputs": [
        {
          "indexed": true,
          "internalType": "address",
          "name": "userAddress",
          "type": "address"
        },
        {
          "indexed": false,
          "internalType": "string",
          "name": "name",
          "type": "string"
        },
        {
          "indexed": false,
          "internalType": "uint256",
          "name": "age",
          "type": "uint256"
        },
        {
          "indexed": false,
          "internalType": "string",
          "name": "documentNumber",
          "type": "string"
        },
        {
          "indexed": false,
          "internalType": "string",
          "name": "residence",
          "type": "string"
        }
      ],
      "name": "ProfileRegistered",
      "type": "event"
    },
    {
      "inputs": [
        {
          "internalType": "address",
          "name": "",
          "type": "address"
        }
      ],
      "name": "profiles",
      "outputs": [
        {
          "internalType": "string",
          "name": "name",
          "type": "string"
        },
        {
          "internalType": "uint256",
          "name": "age",
          "type": "uint256"
        },
        {
          "internalType": "string",
          "name": "documentNumber",
          "type": "string"
        },
        {
          "internalType": "string",
          "name": "residence",
          "type": "string"
        }
      ],
      "stateMutability": "view",
      "type": "function",
      "constant": true
    },
    {
      "inputs": [
        {
          "internalType": "string",
          "name": "_name",
          "type": "string"
        },
        {
          "internalType": "uint256",
          "name": "_age",
          "type": "uint256"
        },
        {
          "internalType": "string",
          "name": "_documentNumber",
          "type": "string"
        },
        {
          "internalType": "string",
          "name": "_residence",
          "type": "string"
        }
      ],
      "name": "registerUserProfile",
      "outputs": [],
      "stateMutability": "nonpayable",
      "type": "function"
    }
  ],
  "bytecode": "0x608060405234801561001057600080fd5b50610b28806100206000396000f3fe608060405234801561001057600080fd5b50600436106100365760003560e01c80635db963081461003b578063bbe1562714610057575b600080fd5b6100556004803603810190610050919061057a565b61008a565b005b610071600480360381019061006c9190610693565b610222565b604051610081949392919061074e565b60405180910390f35b60008060003373ffffffffffffffffffffffffffffffffffffffff1673ffffffffffffffffffffffffffffffffffffffff16815260200190815260200160002060000180546100d8906107d7565b90501461011a576040517f08c379a000000000000000000000000000000000000000000000000000000000815260040161011190610854565b60405180910390fd5b6040518060800160405280858152602001848152602001838152602001828152506000803373ffffffffffffffffffffffffffffffffffffffff1673ffffffffffffffffffffffffffffffffffffffff168152602001908152602001600020600082015181600001908161018e9190610a20565b506020820151816001015560408201518160020190816101ae9190610a20565b5060608201518160030190816101c49190610a20565b509050503373ffffffffffffffffffffffffffffffffffffffff167fa9ffa64f65356e3c44eeed33b73b174c6af96cb9d722ea4649799e8cd4c76ec185858585604051610214949392919061074e565b60405180910390a250505050565b6000602052806000526040600020600091509050806000018054610245906107d7565b80601f0160208091040260200160405190810160405280929190818152602001828054610271906107d7565b80156102be5780601f10610293576101008083540402835291602001916102be565b820191906000526020600020905b8154815290600101906020018083116102a157829003601f168201915b5050505050908060010154908060020180546102d9906107d7565b80601f0160208091040260200160405190810160405280929190818152602001828054610305906107d7565b80156103525780601f1061032757610100808354040283529160200191610352565b820191906000526020600020905b81548152906001019060200180831161033557829003601f168201915b505050505090806003018054610367906107d7565b80601f0160208091040260200160405190810160405280929190818152602001828054610393906107d7565b80156103e05780601f106103b5576101008083540402835291602001916103e0565b820191906000526020600020905b8154815290600101906020018083116103c357829003601f168201915b5050505050905084565b6000604051905090565b600080fd5b600080fd5b600080fd5b600080fd5b6000601f19601f8301169050919050565b7f4e487b7100000000000000000000000000000000000000000000000000000000600052604160045260246000fd5b61045182610408565b810181811067ffffffffffffffff821117156104705761046f610419565b5b80604052505050565b60006104836103ea565b905061048f8282610448565b919050565b600067ffffffffffffffff8211156104af576104ae610419565b5b6104b882610408565b9050602081019050919050565b82818337600083830152505050565b60006104e76104e284610494565b610479565b90508281526020810184848401111561050357610502610403565b5b61050e8482856104c5565b509392505050565b600082601f83011261052b5761052a6103fe565b5b813561053b8482602086016104d4565b91505092915050565b6000819050919050565b61055781610544565b811461056257600080fd5b50565b6000813590506105748161054e565b92915050565b60008060008060808587031215610594576105936103f4565b5b600085013567ffffffffffffffff8111156105b2576105b16103f9565b5b6105be87828801610516565b94505060206105cf87828801610565565b935050604085013567ffffffffffffffff8111156105f0576105ef6103f9565b5b6105fc87828801610516565b925050606085013567ffffffffffffffff81111561061d5761061c6103f9565b5b61062987828801610516565b91505092959194509250565b600073ffffffffffffffffffffffffffffffffffffffff82169050919050565b600061066082610635565b9050919050565b61067081610655565b811461067b57600080fd5b50565b60008135905061068d81610667565b92915050565b6000602082840312156106a9576106a86103f4565b5b60006106b78482850161067e565b91505092915050565b600081519050919050565b600082825260208201905092915050565b60005b838110156106fa5780820151818401526020810190506106df565b60008484015250505050565b6000610711826106c0565b61071b81856106cb565b935061072b8185602086016106dc565b61073481610408565b840191505092915050565b61074881610544565b82525050565b600060808201905081810360008301526107688187610706565b9050610777602083018661073f565b81810360408301526107898185610706565b9050818103606083015261079d8184610706565b905095945050505050565b7f4e487b7100000000000000000000000000000000000000000000000000000000600052602260045260246000fd5b600060028204905060018216806107ef57607f821691505b602082108103610802576108016107a8565b5b50919050565b7f557365722070726f66696c6520616c7265616479206578697374730000000000600082015250565b600061083e601b836106cb565b915061084982610808565b602082019050919050565b6000602082019050818103600083015261086d81610831565b9050919050565b60008190508160005260206000209050919050565b60006020601f8301049050919050565b600082821b905092915050565b6000600883026108d67fffffffffffffffffffffffffffffffffffffffffffffffffffffffffffffffff82610899565b6108e08683610899565b95508019841693508086168417925050509392505050565b6000819050919050565b600061091d61091861091384610544565b6108f8565b610544565b9050919050565b6000819050919050565b61093783610902565b61094b61094382610924565b8484546108a6565b825550505050565b600090565b610960610953565b61096b81848461092e565b505050565b5b8181101561098f57610984600082610958565b600181019050610971565b5050565b601f8211156109d4576109a581610874565b6109ae84610889565b810160208510156109bd578190505b6109d16109c985610889565b830182610970565b50505b505050565b600082821c905092915050565b60006109f7600019846008026109d9565b1980831691505092915050565b6000610a1083836109e6565b9150826002028217905092915050565b610a29826106c0565b67ffffffffffffffff811115610a4257610a41610419565b5b610a4c82546107d7565b610a57828285610993565b600060209050601f831160018114610a8a5760008415610a78578287015190505b610a828582610a04565b865550610aea565b601f198416610a9886610874565b60005b82811015610ac057848901518255600182019150602085019450602081019050610a9b565b86831015610add5784890151610ad9601f8916826109e6565b8355505b6001600288020188555050505b50505050505056fea2646970667358221220db1b395f503f1cd055e02e8e78153a1d66b824a6a26b03f05b1bfdfd902c796064736f6c63430008130033",
  "immutableReferences": {},
  "source": "// SPDX-License-Identifier: MIT\npragma solidity ^0.8.0;\n\ncontract UserProfile {\n    struct Profile {\n        string name;\n        uint256 age;\n        string documentNumber;\n        string residence;\n    }\n\n    mapping(address => Profile) public profiles;\n\n    event ProfileRegistered(\n        address indexed userAddress,\n        string name,\n        uint256 age,\n        string documentNumber,\n        string residence\n    );\n\n    function registerUserProfile(\n        string memory _name,\n        uint256 _age,\n        string memory _documentNumber,\n        string memory _residence\n    ) public {\n        // Check if user already has a profile\n        require(\n            bytes(profiles[msg.sender].name).length == 0,\n            \"User profile already exists\"\n        );\n\n        // Register user profile\n        profiles[msg.sender] = Profile(\n            _name,\n            _age,\n            _documentNumber,\n            _residence\n        );\n\n        // Emit an event\n        emit ProfileRegistered(\n            msg.sender,\n            _name,\n            _age,\n            _documentNumber,\n            _residence\n        );\n    }\n}\n",
  "sourcePath": "/Users/Abhinav/Desktop/559/final-project/contracts/UserProfile.sol",
  "compiler": {
    "name": "solc",
    "version": "0.8.19+commit.7dd6d404.Emscripten.clang"
  },
  "schemaVersion": "3.4.16",
  "updatedAt": "2024-04-25T00:15:50.068Z",
  "networkType": "ethereum",
  "devdoc": {
    "kind": "dev",
    "methods": {},
    "version": 1
  },
  "userdoc": {
    "kind": "user",
    "methods": {},
    "version": 1
  }
}