{
  "contractName": "UserProfile",
  "abi": [
    {
      "anonymous": false,
      "inputs": [
        {
          "indexed": true,
          "internalType": "address",
          "name": "userAddress",
          "type": "address"
        },
        {
          "indexed": false,
          "internalType": "string",
          "name": "name",
          "type": "string"
        },
        {
          "indexed": false,
          "internalType": "uint256",
          "name": "age",
          "type": "uint256"
        },
        {
          "indexed": false,
          "internalType": "string",
          "name": "documentNumber",
          "type": "string"
        },
        {
          "indexed": false,
          "internalType": "string",
          "name": "residence",
          "type": "string"
        }
      ],
      "name": "ProfileRegistered",
      "type": "event"
    },
    {
      "inputs": [
        {
          "internalType": "string",
          "name": "_name",
          "type": "string"
        },
        {
          "internalType": "uint256",
          "name": "_age",
          "type": "uint256"
        },
        {
          "internalType": "string",
          "name": "_documentNumber",
          "type": "string"
        },
        {
          "internalType": "string",
          "name": "_residence",
          "type": "string"
        }
      ],
      "name": "registerUserProfile",
      "outputs": [],
      "stateMutability": "nonpayable",
      "type": "function"
    },
    {
      "inputs": [],
      "name": "getProfileCount",
      "outputs": [
        {
          "internalType": "uint256",
          "name": "",
          "type": "uint256"
        }
      ],
      "stateMutability": "view",
      "type": "function",
      "constant": true
    },
    {
      "inputs": [
        {
          "internalType": "uint256",
          "name": "index",
          "type": "uint256"
        }
      ],
      "name": "getProfile",
      "outputs": [
        {
          "internalType": "address",
          "name": "",
          "type": "address"
        },
        {
          "internalType": "string",
          "name": "",
          "type": "string"
        },
        {
          "internalType": "uint256",
          "name": "",
          "type": "uint256"
        },
        {
          "internalType": "string",
          "name": "",
          "type": "string"
        },
        {
          "internalType": "string",
          "name": "",
          "type": "string"
        }
      ],
      "stateMutability": "view",
      "type": "function",
      "constant": true
    }
  ],
  "bytecode": "0x608060405234801561001057600080fd5b50610e56806100206000396000f3fe608060405234801561001057600080fd5b50600436106100415760003560e01c80633697611a146100465780635db9630814610064578063f08f4f6414610080575b600080fd5b61004e6100b4565b60405161005b91906105cd565b60405180910390f35b61007e6004803603810190610079919061076e565b6100c0565b005b61009a60048036038101906100959190610829565b6102f1565b6040516100ab959493929190610916565b60405180910390f35b60008080549050905090565b60008080549050148061015557503373ffffffffffffffffffffffffffffffffffffffff16600060016000805490506100f991906109ad565b8154811061010a576101096109e1565b5b906000526020600020906005020160000160009054906101000a900473ffffffffffffffffffffffffffffffffffffffff1673ffffffffffffffffffffffffffffffffffffffff1614155b610194576040517f08c379a000000000000000000000000000000000000000000000000000000000815260040161018b90610a5c565b60405180910390fd5b60006040518060a001604052803373ffffffffffffffffffffffffffffffffffffffff168152602001868152602001858152602001848152602001838152509050600081908060018154018082558091505060019003906000526020600020906005020160009091909190915060008201518160000160006101000a81548173ffffffffffffffffffffffffffffffffffffffff021916908373ffffffffffffffffffffffffffffffffffffffff160217905550602082015181600101908161025d9190610c88565b5060408201518160020155606082015181600301908161027d9190610c88565b5060808201518160040190816102939190610c88565b5050503373ffffffffffffffffffffffffffffffffffffffff167fa9ffa64f65356e3c44eeed33b73b174c6af96cb9d722ea4649799e8cd4c76ec1868686866040516102e29493929190610d5a565b60405180910390a25050505050565b6000606060006060806000805490508610610341576040517f08c379a000000000000000000000000000000000000000000000000000000000815260040161033890610e00565b60405180910390fd5b6000808781548110610356576103556109e1565b5b90600052602060002090600502016040518060a00160405290816000820160009054906101000a900473ffffffffffffffffffffffffffffffffffffffff1673ffffffffffffffffffffffffffffffffffffffff1673ffffffffffffffffffffffffffffffffffffffff1681526020016001820180546103d590610aab565b80601f016020809104026020016040519081016040528092919081815260200182805461040190610aab565b801561044e5780601f106104235761010080835404028352916020019161044e565b820191906000526020600020905b81548152906001019060200180831161043157829003601f168201915b505050505081526020016002820154815260200160038201805461047190610aab565b80601f016020809104026020016040519081016040528092919081815260200182805461049d90610aab565b80156104ea5780601f106104bf576101008083540402835291602001916104ea565b820191906000526020600020905b8154815290600101906020018083116104cd57829003601f168201915b5050505050815260200160048201805461050390610aab565b80601f016020809104026020016040519081016040528092919081815260200182805461052f90610aab565b801561057c5780601f106105515761010080835404028352916020019161057c565b820191906000526020600020905b81548152906001019060200180831161055f57829003601f168201915b505050505081525050905080600001518160200151826040015183606001518460800151955095509550955095505091939590929450565b6000819050919050565b6105c7816105b4565b82525050565b60006020820190506105e260008301846105be565b92915050565b6000604051905090565b600080fd5b600080fd5b600080fd5b600080fd5b6000601f19601f8301169050919050565b7f4e487b7100000000000000000000000000000000000000000000000000000000600052604160045260246000fd5b61064f82610606565b810181811067ffffffffffffffff8211171561066e5761066d610617565b5b80604052505050565b60006106816105e8565b905061068d8282610646565b919050565b600067ffffffffffffffff8211156106ad576106ac610617565b5b6106b682610606565b9050602081019050919050565b82818337600083830152505050565b60006106e56106e084610692565b610677565b90508281526020810184848401111561070157610700610601565b5b61070c8482856106c3565b509392505050565b600082601f830112610729576107286105fc565b5b81356107398482602086016106d2565b91505092915050565b61074b816105b4565b811461075657600080fd5b50565b60008135905061076881610742565b92915050565b60008060008060808587031215610788576107876105f2565b5b600085013567ffffffffffffffff8111156107a6576107a56105f7565b5b6107b287828801610714565b94505060206107c387828801610759565b935050604085013567ffffffffffffffff8111156107e4576107e36105f7565b5b6107f087828801610714565b925050606085013567ffffffffffffffff811115610811576108106105f7565b5b61081d87828801610714565b91505092959194509250565b60006020828403121561083f5761083e6105f2565b5b600061084d84828501610759565b91505092915050565b600073ffffffffffffffffffffffffffffffffffffffff82169050919050565b600061088182610856565b9050919050565b61089181610876565b82525050565b600081519050919050565b600082825260208201905092915050565b60005b838110156108d15780820151818401526020810190506108b6565b60008484015250505050565b60006108e882610897565b6108f281856108a2565b93506109028185602086016108b3565b61090b81610606565b840191505092915050565b600060a08201905061092b6000830188610888565b818103602083015261093d81876108dd565b905061094c60408301866105be565b818103606083015261095e81856108dd565b9050818103608083015261097281846108dd565b90509695505050505050565b7f4e487b7100000000000000000000000000000000000000000000000000000000600052601160045260246000fd5b60006109b8826105b4565b91506109c3836105b4565b92508282039050818111156109db576109da61097e565b5b92915050565b7f4e487b7100000000000000000000000000000000000000000000000000000000600052603260045260246000fd5b7f557365722070726f66696c6520616c7265616479206578697374730000000000600082015250565b6000610a46601b836108a2565b9150610a5182610a10565b602082019050919050565b60006020820190508181036000830152610a7581610a39565b9050919050565b7f4e487b7100000000000000000000000000000000000000000000000000000000600052602260045260246000fd5b60006002820490506001821680610ac357607f821691505b602082108103610ad657610ad5610a7c565b5b50919050565b60008190508160005260206000209050919050565b60006020601f8301049050919050565b600082821b905092915050565b600060088302610b3e7fffffffffffffffffffffffffffffffffffffffffffffffffffffffffffffffff82610b01565b610b488683610b01565b95508019841693508086168417925050509392505050565b6000819050919050565b6000610b85610b80610b7b846105b4565b610b60565b6105b4565b9050919050565b6000819050919050565b610b9f83610b6a565b610bb3610bab82610b8c565b848454610b0e565b825550505050565b600090565b610bc8610bbb565b610bd3818484610b96565b505050565b5b81811015610bf757610bec600082610bc0565b600181019050610bd9565b5050565b601f821115610c3c57610c0d81610adc565b610c1684610af1565b81016020851015610c25578190505b610c39610c3185610af1565b830182610bd8565b50505b505050565b600082821c905092915050565b6000610c5f60001984600802610c41565b1980831691505092915050565b6000610c788383610c4e565b9150826002028217905092915050565b610c9182610897565b67ffffffffffffffff811115610caa57610ca9610617565b5b610cb48254610aab565b610cbf828285610bfb565b600060209050601f831160018114610cf25760008415610ce0578287015190505b610cea8582610c6c565b865550610d52565b601f198416610d0086610adc565b60005b82811015610d2857848901518255600182019150602085019450602081019050610d03565b86831015610d455784890151610d41601f891682610c4e565b8355505b6001600288020188555050505b505050505050565b60006080820190508181036000830152610d7481876108dd565b9050610d8360208301866105be565b8181036040830152610d9581856108dd565b90508181036060830152610da981846108dd565b905095945050505050565b7f50726f66696c6520696e646578206f7574206f6620626f756e64730000000000600082015250565b6000610dea601b836108a2565b9150610df582610db4565b602082019050919050565b60006020820190508181036000830152610e1981610ddd565b905091905056fea2646970667358221220f8d96b07422d28e1a37e8a2eaef36286625329ed60df8a4aaa2c7e9b056c29e864736f6c63430008130033",
  "immutableReferences": {},
  "source": "// SPDX-License-Identifier: MIT\npragma solidity ^0.8.0;\n\ncontract UserProfile {\n    struct Profile {\n        address userAddress;\n        string name;\n        uint256 age;\n        string documentNumber;\n        string residence;\n    }\n\n    Profile[] private profiles;\n\n    event ProfileRegistered(\n        address indexed userAddress,\n        string name,\n        uint256 age,\n        string documentNumber,\n        string residence\n    );\n\n    function registerUserProfile(\n        string memory _name,\n        uint256 _age,\n        string memory _documentNumber,\n        string memory _residence\n    ) public {\n        // Check if user already has a profile\n        require(\n            profiles.length == 0 ||\n                profiles[profiles.length - 1].userAddress != msg.sender,\n            \"User profile already exists\"\n        );\n\n        // Register user profile\n        Profile memory newProfile = Profile(\n            msg.sender,\n            _name,\n            _age,\n            _documentNumber,\n            _residence\n        );\n        profiles.push(newProfile);\n\n        // Emit an event\n        emit ProfileRegistered(\n            msg.sender,\n            _name,\n            _age,\n            _documentNumber,\n            _residence\n        );\n    }\n\n    function getProfileCount() public view returns (uint256) {\n        return profiles.length;\n    }\n\n    function getProfile(\n        uint256 index\n    )\n        public\n        view\n        returns (address, string memory, uint256, string memory, string memory)\n    {\n        require(index < profiles.length, \"Profile index out of bounds\");\n        Profile memory profile = profiles[index];\n        return (\n            profile.userAddress,\n            profile.name,\n            profile.age,\n            profile.documentNumber,\n            profile.residence\n        );\n    }\n}\n",
  "sourcePath": "/Users/Abhinav/Desktop/559/final-project/contracts/UserProfile.sol",
  "compiler": {
    "name": "solc",
    "version": "0.8.19+commit.7dd6d404.Emscripten.clang"
  },
  "schemaVersion": "3.4.16",
  "updatedAt": "2024-04-26T02:35:48.022Z",
  "networkType": "ethereum",
  "devdoc": {
    "kind": "dev",
    "methods": {},
    "version": 1
  },
  "userdoc": {
    "kind": "user",
    "methods": {},
    "version": 1
  }
}