{
  "contractName": "UserProfile",
  "abi": [
    {
      "anonymous": false,
      "inputs": [
        {
          "indexed": true,
          "internalType": "address",
          "name": "userAddress",
          "type": "address"
        },
        {
          "indexed": false,
          "internalType": "string",
          "name": "name",
          "type": "string"
        },
        {
          "indexed": false,
          "internalType": "uint256",
          "name": "age",
          "type": "uint256"
        },
        {
          "indexed": false,
          "internalType": "string",
          "name": "documentNumber",
          "type": "string"
        },
        {
          "indexed": false,
          "internalType": "string",
          "name": "residence",
          "type": "string"
        },
        {
          "indexed": false,
          "internalType": "bool",
          "name": "eligibleToVote",
          "type": "bool"
        }
      ],
      "name": "ProfileRegistered",
      "type": "event"
    },
    {
      "inputs": [
        {
          "internalType": "uint256",
          "name": "",
          "type": "uint256"
        }
      ],
      "name": "profiles",
      "outputs": [
        {
          "internalType": "address",
          "name": "userAddress",
          "type": "address"
        },
        {
          "internalType": "string",
          "name": "name",
          "type": "string"
        },
        {
          "internalType": "uint256",
          "name": "age",
          "type": "uint256"
        },
        {
          "internalType": "string",
          "name": "documentNumber",
          "type": "string"
        },
        {
          "internalType": "string",
          "name": "residence",
          "type": "string"
        },
        {
          "internalType": "bool",
          "name": "eligibleToVote",
          "type": "bool"
        }
      ],
      "stateMutability": "view",
      "type": "function",
      "constant": true
    },
    {
      "inputs": [
        {
          "internalType": "string",
          "name": "_name",
          "type": "string"
        },
        {
          "internalType": "uint256",
          "name": "_age",
          "type": "uint256"
        },
        {
          "internalType": "string",
          "name": "_documentNumber",
          "type": "string"
        },
        {
          "internalType": "string",
          "name": "_residence",
          "type": "string"
        }
      ],
      "name": "registerUserProfile",
      "outputs": [],
      "stateMutability": "nonpayable",
      "type": "function"
    },
    {
      "inputs": [
        {
          "internalType": "address",
          "name": "userAddress",
          "type": "address"
        }
      ],
      "name": "isEligibleToVote",
      "outputs": [
        {
          "internalType": "bool",
          "name": "",
          "type": "bool"
        }
      ],
      "stateMutability": "view",
      "type": "function",
      "constant": true
    }
  ],
  "bytecode": "0x608060405234801561001057600080fd5b50610c34806100206000396000f3fe608060405234801561001057600080fd5b50600436106100415760003560e01c80635db963081461004657806370bd8e9314610062578063c36fe3d614610092575b600080fd5b610060600480360381019061005b91906105fc565b6100c7565b005b61007c60048036038101906100779190610715565b610250565b604051610089919061075d565b60405180910390f35b6100ac60048036038101906100a79190610778565b61025b565b6040516100be96959493929190610842565b60405180910390f35b60006040518060c001604052803373ffffffffffffffffffffffffffffffffffffffff168152602001868152602001858152602001848152602001838152602001600015158152509050600081908060018154018082558091505060019003906000526020600020906006020160009091909190915060008201518160000160006101000a81548173ffffffffffffffffffffffffffffffffffffffff021916908373ffffffffffffffffffffffffffffffffffffffff16021790555060208201518160010190816101999190610ac4565b506040820151816002015560608201518160030190816101b99190610ac4565b5060808201518160040190816101cf9190610ac4565b5060a08201518160050160006101000a81548160ff02191690831515021790555050503373ffffffffffffffffffffffffffffffffffffffff167f1a189abb57c764bcf505e7588ac71e6cfcb7d1395d874f795261628cf577c17c868686866000604051610241959493929190610b96565b60405180910390a25050505050565b600060019050919050565b6000818154811061026b57600080fd5b90600052602060002090600602016000915090508060000160009054906101000a900473ffffffffffffffffffffffffffffffffffffffff16908060010180546102b4906108e7565b80601f01602080910402602001604051908101604052809291908181526020018280546102e0906108e7565b801561032d5780601f106103025761010080835404028352916020019161032d565b820191906000526020600020905b81548152906001019060200180831161031057829003601f168201915b505050505090806002015490806003018054610348906108e7565b80601f0160208091040260200160405190810160405280929190818152602001828054610374906108e7565b80156103c15780601f10610396576101008083540402835291602001916103c1565b820191906000526020600020905b8154815290600101906020018083116103a457829003601f168201915b5050505050908060040180546103d6906108e7565b80601f0160208091040260200160405190810160405280929190818152602001828054610402906108e7565b801561044f5780601f106104245761010080835404028352916020019161044f565b820191906000526020600020905b81548152906001019060200180831161043257829003601f168201915b5050505050908060050160009054906101000a900460ff16905086565b6000604051905090565b600080fd5b600080fd5b600080fd5b600080fd5b6000601f19601f8301169050919050565b7f4e487b7100000000000000000000000000000000000000000000000000000000600052604160045260246000fd5b6104d38261048a565b810181811067ffffffffffffffff821117156104f2576104f161049b565b5b80604052505050565b600061050561046c565b905061051182826104ca565b919050565b600067ffffffffffffffff8211156105315761053061049b565b5b61053a8261048a565b9050602081019050919050565b82818337600083830152505050565b600061056961056484610516565b6104fb565b90508281526020810184848401111561058557610584610485565b5b610590848285610547565b509392505050565b600082601f8301126105ad576105ac610480565b5b81356105bd848260208601610556565b91505092915050565b6000819050919050565b6105d9816105c6565b81146105e457600080fd5b50565b6000813590506105f6816105d0565b92915050565b6000806000806080858703121561061657610615610476565b5b600085013567ffffffffffffffff8111156106345761063361047b565b5b61064087828801610598565b9450506020610651878288016105e7565b935050604085013567ffffffffffffffff8111156106725761067161047b565b5b61067e87828801610598565b925050606085013567ffffffffffffffff81111561069f5761069e61047b565b5b6106ab87828801610598565b91505092959194509250565b600073ffffffffffffffffffffffffffffffffffffffff82169050919050565b60006106e2826106b7565b9050919050565b6106f2816106d7565b81146106fd57600080fd5b50565b60008135905061070f816106e9565b92915050565b60006020828403121561072b5761072a610476565b5b600061073984828501610700565b91505092915050565b60008115159050919050565b61075781610742565b82525050565b6000602082019050610772600083018461074e565b92915050565b60006020828403121561078e5761078d610476565b5b600061079c848285016105e7565b91505092915050565b6107ae816106d7565b82525050565b600081519050919050565b600082825260208201905092915050565b60005b838110156107ee5780820151818401526020810190506107d3565b60008484015250505050565b6000610805826107b4565b61080f81856107bf565b935061081f8185602086016107d0565b6108288161048a565b840191505092915050565b61083c816105c6565b82525050565b600060c08201905061085760008301896107a5565b818103602083015261086981886107fa565b90506108786040830187610833565b818103606083015261088a81866107fa565b9050818103608083015261089e81856107fa565b90506108ad60a083018461074e565b979650505050505050565b7f4e487b7100000000000000000000000000000000000000000000000000000000600052602260045260246000fd5b600060028204905060018216806108ff57607f821691505b602082108103610912576109116108b8565b5b50919050565b60008190508160005260206000209050919050565b60006020601f8301049050919050565b600082821b905092915050565b60006008830261097a7fffffffffffffffffffffffffffffffffffffffffffffffffffffffffffffffff8261093d565b610984868361093d565b95508019841693508086168417925050509392505050565b6000819050919050565b60006109c16109bc6109b7846105c6565b61099c565b6105c6565b9050919050565b6000819050919050565b6109db836109a6565b6109ef6109e7826109c8565b84845461094a565b825550505050565b600090565b610a046109f7565b610a0f8184846109d2565b505050565b5b81811015610a3357610a286000826109fc565b600181019050610a15565b5050565b601f821115610a7857610a4981610918565b610a528461092d565b81016020851015610a61578190505b610a75610a6d8561092d565b830182610a14565b50505b505050565b600082821c905092915050565b6000610a9b60001984600802610a7d565b1980831691505092915050565b6000610ab48383610a8a565b9150826002028217905092915050565b610acd826107b4565b67ffffffffffffffff811115610ae657610ae561049b565b5b610af082546108e7565b610afb828285610a37565b600060209050601f831160018114610b2e5760008415610b1c578287015190505b610b268582610aa8565b865550610b8e565b601f198416610b3c86610918565b60005b82811015610b6457848901518255600182019150602085019450602081019050610b3f565b86831015610b815784890151610b7d601f891682610a8a565b8355505b6001600288020188555050505b505050505050565b600060a0820190508181036000830152610bb081886107fa565b9050610bbf6020830187610833565b8181036040830152610bd181866107fa565b90508181036060830152610be581856107fa565b9050610bf4608083018461074e565b969550505050505056fea26469706673582212201fbdb0e543cfbdaf6789f188b41c78175c7c1ee8879b37d62c2d5f6350f576e664736f6c63430008130033",
  "immutableReferences": {},
  "source": "pragma solidity ^0.8.0;\n\ncontract UserProfile {\n    struct Profile {\n        address userAddress;\n        string name;\n        uint256 age;\n        string documentNumber;\n        string residence;\n        bool eligibleToVote; // New parameter\n    }\n\n    Profile[] public profiles;\n\n    event ProfileRegistered(\n        address indexed userAddress,\n        string name,\n        uint256 age,\n        string documentNumber,\n        string residence,\n        bool eligibleToVote\n    );\n\n    // Function to register a user profile\n    function registerUserProfile(\n        string memory _name,\n        uint256 _age,\n        string memory _documentNumber,\n        string memory _residence\n    ) public {\n        // Register user profile\n        Profile memory newProfile = Profile(\n            msg.sender,\n            _name,\n            _age,\n            _documentNumber,\n            _residence,\n            false\n        );\n        profiles.push(newProfile);\n\n        // Emit an event\n        emit ProfileRegistered(\n            msg.sender,\n            _name,\n            _age,\n            _documentNumber,\n            _residence,\n            false\n        );\n        //isEligibleToVote(msg.sender);\n    }\n\n    function isEligibleToVote(\n        address userAddress\n    ) external view returns (bool) {\n        return true;\n    }\n\n    // Function to check if a user is eligible to vote\n    /*function isEligibleToVote(address userAddress) external returns (bool) {\n        // Implement logic to check government ID through API\n        // If government ID is valid, set eligibleToVote to true\n        // For now, let's assume the eligibility check is successful\n        for (uint256 i = 0; i < profiles.length; i++) {\n            if (profiles[i].userAddress == userAddress) {\n                profiles[i].eligibleToVote = true;\n                return true;\n            }\n        }\n        return false;\n    }*/\n}\n",
  "sourcePath": "/Users/Abhinav/Desktop/559/final-project/contracts/UserProfile.sol",
  "compiler": {
    "name": "solc",
    "version": "0.8.19+commit.7dd6d404.Emscripten.clang"
  },
  "schemaVersion": "3.4.16",
  "updatedAt": "2024-04-28T06:07:37.529Z",
  "networkType": "ethereum",
  "devdoc": {
    "kind": "dev",
    "methods": {},
    "version": 1
  },
  "userdoc": {
    "kind": "user",
    "methods": {},
    "version": 1
  }
}